{
  "transactions": [
    {
      "hash": "0x67313ad57e1aa189feee76fea10bf033a8a197e5f3bd556ac5cb6f9ed3679e3d",
      "transactionType": "CREATE",
      "contractName": "TSAggregatorUniswapV2",
      "contractAddress": "0x86904eb2b3c743400d03f929f2246efa80b91215",
      "function": null,
      "arguments": null,
      "transaction": {
        "type": "0x02",
        "from": "0x813288526ccbfade7aba8836a4ca2462eb886bb7",
        "gas": "0x1262fd",
        "value": "0x0",
        "data": "0x60806040526001805534801561001457600080fd5b50604051610ef6380380610ef6833981016040819052610033916100f9565b8261003f336001610080565b600480546001600160a01b03199081166001600160a01b0393841617909155600580548216948316949094179093556006805490931691161790555061013c565b6001600160a01b03821660008181526020818152604091829020805460ff191685151590811790915591519182527ff74826f11048fa8ecf33e91132bf280f6582ed97548a84e426b56e98526b9316910160405180910390a25050565b80516001600160a01b03811681146100f457600080fd5b919050565b60008060006060848603121561010e57600080fd5b610117846100dd565b9250610125602085016100dd565b9150610133604085016100dd565b90509250925092565b610dab8061014b6000396000f3fe6080604052600436106100955760003560e01c8063516c731c11610059578063516c731c14610173578063b4f2e8b814610193578063c31c9c07146101b3578063ddca3f43146101d3578063e4d0c7f0146101f757600080fd5b8063022914a7146100a15780630eefdbad146100e65780633fc8cef31461011e578063469048401461013e57806348c314f41461015e57600080fd5b3661009c57005b600080fd5b3480156100ad57600080fd5b506100d16100bc366004610950565b60006020819052908152604090205460ff1681565b60405190151581526020015b60405180910390f35b3480156100f257600080fd5b50600454610106906001600160a01b031681565b6040516001600160a01b0390911681526020016100dd565b34801561012a57600080fd5b50600554610106906001600160a01b031681565b34801561014a57600080fd5b50600354610106906001600160a01b031681565b61017161016c366004610972565b610217565b005b34801561017f57600080fd5b5061017161018e3660046109ae565b61036f565b34801561019f57600080fd5b506101716101ae3660046109ea565b6103cb565b3480156101bf57600080fd5b50600654610106906001600160a01b031681565b3480156101df57600080fd5b506101e960025481565b6040519081526020016100dd565b34801561020357600080fd5b50610171610212366004610a16565b6104cc565b60015460011461025b5760405162461bcd60e51b815260206004820152600a6024820152695245454e5452414e435960b01b60448201526064015b60405180910390fd5b6002600155600061026b3461071d565b6040805160028082526060820183529293506000929091602083019080368337505060055482519293506001600160a01b0316918391506000906102b1576102b1610ad5565b60200260200101906001600160a01b031690816001600160a01b03168152505084816001815181106102e5576102e5610ad5565b6001600160a01b03928316602091820292909201015260065416637ff36ab58361030e86610789565b84886000196040518663ffffffff1660e01b81526004016103329493929190610b2f565b6000604051808303818588803b15801561034b57600080fd5b505af115801561035f573d6000803e3d6000fd5b5050600180555050505050505050565b3360009081526020819052604090205460ff166103bd5760405162461bcd60e51b815260206004820152600c60248201526b155b985d5d1a1bdc9a5e995960a21b6044820152606401610252565b6103c782826107bc565b5050565b3360009081526020819052604090205460ff166104195760405162461bcd60e51b815260206004820152600c60248201526b155b985d5d1a1bdc9a5e995960a21b6044820152606401610252565b6103e882111561046b5760405162461bcd60e51b815260206004820152601c60248201527f6665652063616e206e6f74206265206d6f7265207468616e20313025000000006044820152606401610252565b6002829055600380546001600160a01b0319166001600160a01b0383169081179091556040805184815260208101929092527fc8242dc5446855370b781abbfc5d882af1d1a3cc29143216aba3558feb0ce925910160405180910390a15050565b60015460011461050b5760405162461bcd60e51b815260206004820152600a6024820152695245454e5452414e435960b01b6044820152606401610252565b6002600155600480546040516368155ec160e01b81526001600160a01b0387811693820193909352336024820152306044820152606481018690529116906368155ec190608401600060405180830381600087803b15801561056c57600080fd5b505af1158015610580573d6000803e3d6000fd5b505060065461059f92506001600160a01b038781169250166000610819565b6006546105b9906001600160a01b03868116911685610819565b60408051600280825260608201835260009260208301908036833701905050905084816000815181106105ee576105ee610ad5565b6001600160a01b03928316602091820292909201015260055482519116908290600190811061061f5761061f610ad5565b6001600160a01b0392831660209182029290920101526006546040516318cbafe560e01b81529116906318cbafe5906106649087908790869030908990600401610b64565b600060405180830381600087803b15801561067e57600080fd5b505af1158015610692573d6000803e3d6000fd5b5050505060006106a14761071d565b9050896001600160a01b03166344bc937b828b6000858d8d8a6040518863ffffffff1660e01b81526004016106db96959493929190610ba0565b6000604051808303818588803b1580156106f457600080fd5b505af1158015610708573d6000803e3d6000fd5b50506001805550505050505050505050505050565b600060025460001415801561073c57506003546001600160a01b031615155b15610785576000612710600254846107549190610c11565b61075e9190610c46565b600354909150610777906001600160a01b031682610897565b6107818184610c5a565b9250505b5090565b6000610796606483610c71565b6107a190600a610d69565b6107ac606484610c46565b6107b69190610c11565b92915050565b6001600160a01b03821660008181526020818152604091829020805460ff191685151590811790915591519182527ff74826f11048fa8ecf33e91132bf280f6582ed97548a84e426b56e98526b9316910160405180910390a25050565b600060405163095ea7b360e01b81526001600160a01b03841660048201528260248201526000806044836000895af1915050610854816108ed565b6108915760405162461bcd60e51b815260206004820152600e60248201526d1054141493d59157d1905253115160921b6044820152606401610252565b50505050565b600080600080600085875af19050806108e85760405162461bcd60e51b815260206004820152601360248201527211551217d514905394d1915497d19052531151606a1b6044820152606401610252565b505050565b60003d826108ff57806000803e806000fd5b8060208114610917578015610928576000925061092d565b816000803e6000511515925061092d565b600192505b5050919050565b80356001600160a01b038116811461094b57600080fd5b919050565b60006020828403121561096257600080fd5b61096b82610934565b9392505050565b60008060006060848603121561098757600080fd5b61099084610934565b925061099e60208501610934565b9150604084013590509250925092565b600080604083850312156109c157600080fd5b6109ca83610934565b9150602083013580151581146109df57600080fd5b809150509250929050565b600080604083850312156109fd57600080fd5b82359150610a0d60208401610934565b90509250929050565b60008060008060008060008060e0898b031215610a3257600080fd5b610a3b89610934565b9750610a4960208a01610934565b9650604089013567ffffffffffffffff80821115610a6657600080fd5b818b0191508b601f830112610a7a57600080fd5b813581811115610a8957600080fd5b8c6020828501011115610a9b57600080fd5b602083019850809750505050610ab360608a01610934565b979a96995094979396956080850135955060a08501359460c001359350915050565b634e487b7160e01b600052603260045260246000fd5b600081518084526020808501945080840160005b83811015610b245781516001600160a01b031687529582019590820190600101610aff565b509495945050505050565b848152608060208201526000610b486080830186610aeb565b6001600160a01b03949094166040830152506060015292915050565b85815284602082015260a060408201526000610b8360a0830186610aeb565b6001600160a01b0394909416606083015250608001529392505050565b6001600160a01b038781168252861660208201526040810185905260a06060820181905281018390526000838560c0840137600060c0858401015260c0601f19601f8601168301019050826080830152979650505050505050565b634e487b7160e01b600052601160045260246000fd5b6000816000190483118215151615610c2b57610c2b610bfb565b500290565b634e487b7160e01b600052601260045260246000fd5b600082610c5557610c55610c30565b500490565b600082821015610c6c57610c6c610bfb565b500390565b600082610c8057610c80610c30565b500690565b600181815b80851115610cc0578160001904821115610ca657610ca6610bfb565b80851615610cb357918102915b93841c9390800290610c8a565b509250929050565b600082610cd7575060016107b6565b81610ce4575060006107b6565b8160018114610cfa5760028114610d0457610d20565b60019150506107b6565b60ff841115610d1557610d15610bfb565b50506001821b6107b6565b5060208310610133831016604e8410600b8410161715610d43575081810a6107b6565b610d4d8383610c85565b8060001904821115610d6157610d61610bfb565b029392505050565b600061096b8383610cc856fea2646970667358221220d2975fdb5b4c71988e19fed9f01d9c2be1118bfdb85b0cb94be273e9328c2d2964736f6c634300080a0033000000000000000000000000f892fef9da200d9e84c9b0647ecff0f34633abe8000000000000000000000000c02aaa39b223fe8d0a0e5c4f27ead9083c756cc20000000000000000000000007a250d5630b4cf539739df2c5dacb4c659f2488d",
        "nonce": "0x28",
        "accessList": []
      },
      "additionalContracts": []
    },
    {
      "hash": "0x25a058df28f0f733455ce4772498bc4938f16db3071d17391664e9e7d2f11ee0",
      "transactionType": "CREATE",
      "contractName": "TSAggregatorUniswapV2",
      "contractAddress": "0xbf365e79aa44a2164da135100c57fdb6635ae870",
      "function": null,
      "arguments": null,
      "transaction": {
        "type": "0x02",
        "from": "0x813288526ccbfade7aba8836a4ca2462eb886bb7",
        "gas": "0x1262fd",
        "value": "0x0",
        "data": "0x60806040526001805534801561001457600080fd5b50604051610ef6380380610ef6833981016040819052610033916100f9565b8261003f336001610080565b600480546001600160a01b03199081166001600160a01b0393841617909155600580548216948316949094179093556006805490931691161790555061013c565b6001600160a01b03821660008181526020818152604091829020805460ff191685151590811790915591519182527ff74826f11048fa8ecf33e91132bf280f6582ed97548a84e426b56e98526b9316910160405180910390a25050565b80516001600160a01b03811681146100f457600080fd5b919050565b60008060006060848603121561010e57600080fd5b610117846100dd565b9250610125602085016100dd565b9150610133604085016100dd565b90509250925092565b610dab8061014b6000396000f3fe6080604052600436106100955760003560e01c8063516c731c11610059578063516c731c14610173578063b4f2e8b814610193578063c31c9c07146101b3578063ddca3f43146101d3578063e4d0c7f0146101f757600080fd5b8063022914a7146100a15780630eefdbad146100e65780633fc8cef31461011e578063469048401461013e57806348c314f41461015e57600080fd5b3661009c57005b600080fd5b3480156100ad57600080fd5b506100d16100bc366004610950565b60006020819052908152604090205460ff1681565b60405190151581526020015b60405180910390f35b3480156100f257600080fd5b50600454610106906001600160a01b031681565b6040516001600160a01b0390911681526020016100dd565b34801561012a57600080fd5b50600554610106906001600160a01b031681565b34801561014a57600080fd5b50600354610106906001600160a01b031681565b61017161016c366004610972565b610217565b005b34801561017f57600080fd5b5061017161018e3660046109ae565b61036f565b34801561019f57600080fd5b506101716101ae3660046109ea565b6103cb565b3480156101bf57600080fd5b50600654610106906001600160a01b031681565b3480156101df57600080fd5b506101e960025481565b6040519081526020016100dd565b34801561020357600080fd5b50610171610212366004610a16565b6104cc565b60015460011461025b5760405162461bcd60e51b815260206004820152600a6024820152695245454e5452414e435960b01b60448201526064015b60405180910390fd5b6002600155600061026b3461071d565b6040805160028082526060820183529293506000929091602083019080368337505060055482519293506001600160a01b0316918391506000906102b1576102b1610ad5565b60200260200101906001600160a01b031690816001600160a01b03168152505084816001815181106102e5576102e5610ad5565b6001600160a01b03928316602091820292909201015260065416637ff36ab58361030e86610789565b84886000196040518663ffffffff1660e01b81526004016103329493929190610b2f565b6000604051808303818588803b15801561034b57600080fd5b505af115801561035f573d6000803e3d6000fd5b5050600180555050505050505050565b3360009081526020819052604090205460ff166103bd5760405162461bcd60e51b815260206004820152600c60248201526b155b985d5d1a1bdc9a5e995960a21b6044820152606401610252565b6103c782826107bc565b5050565b3360009081526020819052604090205460ff166104195760405162461bcd60e51b815260206004820152600c60248201526b155b985d5d1a1bdc9a5e995960a21b6044820152606401610252565b6103e882111561046b5760405162461bcd60e51b815260206004820152601c60248201527f6665652063616e206e6f74206265206d6f7265207468616e20313025000000006044820152606401610252565b6002829055600380546001600160a01b0319166001600160a01b0383169081179091556040805184815260208101929092527fc8242dc5446855370b781abbfc5d882af1d1a3cc29143216aba3558feb0ce925910160405180910390a15050565b60015460011461050b5760405162461bcd60e51b815260206004820152600a6024820152695245454e5452414e435960b01b6044820152606401610252565b6002600155600480546040516368155ec160e01b81526001600160a01b0387811693820193909352336024820152306044820152606481018690529116906368155ec190608401600060405180830381600087803b15801561056c57600080fd5b505af1158015610580573d6000803e3d6000fd5b505060065461059f92506001600160a01b038781169250166000610819565b6006546105b9906001600160a01b03868116911685610819565b60408051600280825260608201835260009260208301908036833701905050905084816000815181106105ee576105ee610ad5565b6001600160a01b03928316602091820292909201015260055482519116908290600190811061061f5761061f610ad5565b6001600160a01b0392831660209182029290920101526006546040516318cbafe560e01b81529116906318cbafe5906106649087908790869030908990600401610b64565b600060405180830381600087803b15801561067e57600080fd5b505af1158015610692573d6000803e3d6000fd5b5050505060006106a14761071d565b9050896001600160a01b03166344bc937b828b6000858d8d8a6040518863ffffffff1660e01b81526004016106db96959493929190610ba0565b6000604051808303818588803b1580156106f457600080fd5b505af1158015610708573d6000803e3d6000fd5b50506001805550505050505050505050505050565b600060025460001415801561073c57506003546001600160a01b031615155b15610785576000612710600254846107549190610c11565b61075e9190610c46565b600354909150610777906001600160a01b031682610897565b6107818184610c5a565b9250505b5090565b6000610796606483610c71565b6107a190600a610d69565b6107ac606484610c46565b6107b69190610c11565b92915050565b6001600160a01b03821660008181526020818152604091829020805460ff191685151590811790915591519182527ff74826f11048fa8ecf33e91132bf280f6582ed97548a84e426b56e98526b9316910160405180910390a25050565b600060405163095ea7b360e01b81526001600160a01b03841660048201528260248201526000806044836000895af1915050610854816108ed565b6108915760405162461bcd60e51b815260206004820152600e60248201526d1054141493d59157d1905253115160921b6044820152606401610252565b50505050565b600080600080600085875af19050806108e85760405162461bcd60e51b815260206004820152601360248201527211551217d514905394d1915497d19052531151606a1b6044820152606401610252565b505050565b60003d826108ff57806000803e806000fd5b8060208114610917578015610928576000925061092d565b816000803e6000511515925061092d565b600192505b5050919050565b80356001600160a01b038116811461094b57600080fd5b919050565b60006020828403121561096257600080fd5b61096b82610934565b9392505050565b60008060006060848603121561098757600080fd5b61099084610934565b925061099e60208501610934565b9150604084013590509250925092565b600080604083850312156109c157600080fd5b6109ca83610934565b9150602083013580151581146109df57600080fd5b809150509250929050565b600080604083850312156109fd57600080fd5b82359150610a0d60208401610934565b90509250929050565b60008060008060008060008060e0898b031215610a3257600080fd5b610a3b89610934565b9750610a4960208a01610934565b9650604089013567ffffffffffffffff80821115610a6657600080fd5b818b0191508b601f830112610a7a57600080fd5b813581811115610a8957600080fd5b8c6020828501011115610a9b57600080fd5b602083019850809750505050610ab360608a01610934565b979a96995094979396956080850135955060a08501359460c001359350915050565b634e487b7160e01b600052603260045260246000fd5b600081518084526020808501945080840160005b83811015610b245781516001600160a01b031687529582019590820190600101610aff565b509495945050505050565b848152608060208201526000610b486080830186610aeb565b6001600160a01b03949094166040830152506060015292915050565b85815284602082015260a060408201526000610b8360a0830186610aeb565b6001600160a01b0394909416606083015250608001529392505050565b6001600160a01b038781168252861660208201526040810185905260a06060820181905281018390526000838560c0840137600060c0858401015260c0601f19601f8601168301019050826080830152979650505050505050565b634e487b7160e01b600052601160045260246000fd5b6000816000190483118215151615610c2b57610c2b610bfb565b500290565b634e487b7160e01b600052601260045260246000fd5b600082610c5557610c55610c30565b500490565b600082821015610c6c57610c6c610bfb565b500390565b600082610c8057610c80610c30565b500690565b600181815b80851115610cc0578160001904821115610ca657610ca6610bfb565b80851615610cb357918102915b93841c9390800290610c8a565b509250929050565b600082610cd7575060016107b6565b81610ce4575060006107b6565b8160018114610cfa5760028114610d0457610d20565b60019150506107b6565b60ff841115610d1557610d15610bfb565b50506001821b6107b6565b5060208310610133831016604e8410600b8410161715610d43575081810a6107b6565b610d4d8383610c85565b8060001904821115610d6157610d61610bfb565b029392505050565b600061096b8383610cc856fea2646970667358221220d2975fdb5b4c71988e19fed9f01d9c2be1118bfdb85b0cb94be273e9328c2d2964736f6c634300080a0033000000000000000000000000f892fef9da200d9e84c9b0647ecff0f34633abe8000000000000000000000000c02aaa39b223fe8d0a0e5c4f27ead9083c756cc2000000000000000000000000d9e1ce17f2641f24ae83637ab66a2cca9c378b9f",
        "nonce": "0x29",
        "accessList": []
      },
      "additionalContracts": []
    },
    {
      "hash": "0x8e645b59b0cb5098ed81e801fc1de892030eb9593ff8eb663408c4b50596c2dc",
      "transactionType": "CREATE",
      "contractName": "TSAggregatorUniswapV3",
      "contractAddress": "0xbd68cbe6c247e2c3a0e36b8f0e24964914f26ee8",
      "function": null,
      "arguments": null,
      "transaction": {
        "type": "0x02",
        "from": "0x813288526ccbfade7aba8836a4ca2462eb886bb7",
        "gas": "0x1313bf",
        "value": "0x0",
        "data": "0x60806040526001805534801561001457600080fd5b50604051610fc9380380610fc983398101604081905261003391610115565b8361003f33600161009c565b600480546001600160a01b039283166001600160a01b0319918216179091556005805462ffffff909416600160a01b026001600160b81b031990941695831695909517929092179093556006805492909316911617905550610173565b6001600160a01b03821660008181526020818152604091829020805460ff191685151590811790915591519182527ff74826f11048fa8ecf33e91132bf280f6582ed97548a84e426b56e98526b9316910160405180910390a25050565b80516001600160a01b038116811461011057600080fd5b919050565b6000806000806080858703121561012b57600080fd5b610134856100f9565b9350610142602086016100f9565b9250610150604086016100f9565b9150606085015162ffffff8116811461016857600080fd5b939692955090935050565b610e47806101826000396000f3fe6080604052600436106100a05760003560e01c806348c314f41161006457806348c314f4146101a0578063516c731c146101b5578063b4f2e8b8146101d5578063c31c9c07146101f5578063ddca3f4314610215578063e4d0c7f01461023957600080fd5b8063022914a7146100ac578063089fe6aa146100f15780630eefdbad146101285780633fc8cef314610160578063469048401461018057600080fd5b366100a757005b600080fd5b3480156100b857600080fd5b506100dc6100c7366004610a35565b60006020819052908152604090205460ff1681565b60405190151581526020015b60405180910390f35b3480156100fd57600080fd5b5060055461011490600160a01b900462ffffff1681565b60405162ffffff90911681526020016100e8565b34801561013457600080fd5b50600454610148906001600160a01b031681565b6040516001600160a01b0390911681526020016100e8565b34801561016c57600080fd5b50600554610148906001600160a01b031681565b34801561018c57600080fd5b50600354610148906001600160a01b031681565b6101b36101ae366004610a57565b610259565b005b3480156101c157600080fd5b506101b36101d0366004610a93565b610416565b3480156101e157600080fd5b506101b36101f0366004610acf565b610472565b34801561020157600080fd5b50600654610148906001600160a01b031681565b34801561022157600080fd5b5061022b60025481565b6040519081526020016100e8565b34801561024557600080fd5b506101b3610254366004610afb565b610573565b60015460011461029d5760405162461bcd60e51b815260206004820152600a6024820152695245454e5452414e435960b01b60448201526064015b60405180910390fd5b600260015560006102ad34610802565b9050600560009054906101000a90046001600160a01b03166001600160a01b031663d0e30db0826040518263ffffffff1660e01b81526004016000604051808303818588803b1580156102ff57600080fd5b505af1158015610313573d6000803e3d6000fd5b505060065460055461033694506001600160a01b0390811693501690508361086e565b60065460408051610100810182526005546001600160a01b0380821683528881166020840152600160a01b90910462ffffff16928201929092528582166060820152600019608082015260a0810184905291169063414bf3899060c0810161039d866108ec565b815260006020909101526040516001600160e01b031960e084901b1681526103c89190600401610bba565b6020604051808303816000875af11580156103e7573d6000803e3d6000fd5b505050506040513d601f19601f8201168201806040525081019061040b9190610c23565b505060018055505050565b3360009081526020819052604090205460ff166104645760405162461bcd60e51b815260206004820152600c60248201526b155b985d5d1a1bdc9a5e995960a21b6044820152606401610294565b61046e828261091f565b5050565b3360009081526020819052604090205460ff166104c05760405162461bcd60e51b815260206004820152600c60248201526b155b985d5d1a1bdc9a5e995960a21b6044820152606401610294565b6103e88211156105125760405162461bcd60e51b815260206004820152601c60248201527f6665652063616e206e6f74206265206d6f7265207468616e20313025000000006044820152606401610294565b6002829055600380546001600160a01b0319166001600160a01b0383169081179091556040805184815260208101929092527fc8242dc5446855370b781abbfc5d882af1d1a3cc29143216aba3558feb0ce925910160405180910390a15050565b6001546001146105b25760405162461bcd60e51b815260206004820152600a6024820152695245454e5452414e435960b01b6044820152606401610294565b6002600155600480546040516368155ec160e01b81526001600160a01b0387811693820193909352336024820152306044820152606481018690529116906368155ec190608401600060405180830381600087803b15801561061357600080fd5b505af1158015610627573d6000803e3d6000fd5b505060065461064692506001600160a01b03878116925016600061086e565b600654610660906001600160a01b0386811691168561086e565b60065460408051610100810182526001600160a01b0387811682526005548082166020840152600160a01b900462ffffff16828401523060608301526080820185905260a0820187905260c08201869052600060e08301819052925163414bf38960e01b81529293169163414bf389916106dc91600401610bba565b6020604051808303816000875af11580156106fb573d6000803e3d6000fd5b505050506040513d601f19601f8201168201806040525081019061071f9190610c23565b600554604051632e1a7d4d60e01b8152600481018390529192506001600160a01b031690632e1a7d4d90602401600060405180830381600087803b15801561076657600080fd5b505af115801561077a573d6000803e3d6000fd5b5050505061078781610802565b9050886001600160a01b03166344bc937b828a6000858c8c896040518863ffffffff1660e01b81526004016107c196959493929190610c3c565b6000604051808303818588803b1580156107da57600080fd5b505af11580156107ee573d6000803e3d6000fd5b505060018055505050505050505050505050565b600060025460001415801561082157506003546001600160a01b031615155b1561086a576000612710600254846108399190610cad565b6108439190610ce2565b60035490915061085c906001600160a01b03168261097c565b6108668184610cf6565b9250505b5090565b600060405163095ea7b360e01b81526001600160a01b03841660048201528260248201526000806044836000895af19150506108a9816109d2565b6108e65760405162461bcd60e51b815260206004820152600e60248201526d1054141493d59157d1905253115160921b6044820152606401610294565b50505050565b60006108f9606483610d0d565b61090490600a610e05565b61090f606484610ce2565b6109199190610cad565b92915050565b6001600160a01b03821660008181526020818152604091829020805460ff191685151590811790915591519182527ff74826f11048fa8ecf33e91132bf280f6582ed97548a84e426b56e98526b9316910160405180910390a25050565b600080600080600085875af19050806109cd5760405162461bcd60e51b815260206004820152601360248201527211551217d514905394d1915497d19052531151606a1b6044820152606401610294565b505050565b60003d826109e457806000803e806000fd5b80602081146109fc578015610a0d5760009250610a12565b816000803e60005115159250610a12565b600192505b5050919050565b80356001600160a01b0381168114610a3057600080fd5b919050565b600060208284031215610a4757600080fd5b610a5082610a19565b9392505050565b600080600060608486031215610a6c57600080fd5b610a7584610a19565b9250610a8360208501610a19565b9150604084013590509250925092565b60008060408385031215610aa657600080fd5b610aaf83610a19565b915060208301358015158114610ac457600080fd5b809150509250929050565b60008060408385031215610ae257600080fd5b82359150610af260208401610a19565b90509250929050565b60008060008060008060008060e0898b031215610b1757600080fd5b610b2089610a19565b9750610b2e60208a01610a19565b9650604089013567ffffffffffffffff80821115610b4b57600080fd5b818b0191508b601f830112610b5f57600080fd5b813581811115610b6e57600080fd5b8c6020828501011115610b8057600080fd5b602083019850809750505050610b9860608a01610a19565b979a96995094979396956080850135955060a08501359460c001359350915050565b81516001600160a01b03908116825260208084015182169083015260408084015162ffffff16908301526060808401518216908301526080808401519083015260a0838101519083015260c0808401519083015260e09283015116918101919091526101000190565b600060208284031215610c3557600080fd5b5051919050565b6001600160a01b038781168252861660208201526040810185905260a06060820181905281018390526000838560c0840137600060c0858401015260c0601f19601f8601168301019050826080830152979650505050505050565b634e487b7160e01b600052601160045260246000fd5b6000816000190483118215151615610cc757610cc7610c97565b500290565b634e487b7160e01b600052601260045260246000fd5b600082610cf157610cf1610ccc565b500490565b600082821015610d0857610d08610c97565b500390565b600082610d1c57610d1c610ccc565b500690565b600181815b80851115610d5c578160001904821115610d4257610d42610c97565b80851615610d4f57918102915b93841c9390800290610d26565b509250929050565b600082610d7357506001610919565b81610d8057506000610919565b8160018114610d965760028114610da057610dbc565b6001915050610919565b60ff841115610db157610db1610c97565b50506001821b610919565b5060208310610133831016604e8410600b8410161715610ddf575081810a610919565b610de98383610d21565b8060001904821115610dfd57610dfd610c97565b029392505050565b6000610a508383610d6456fea2646970667358221220c5c9b18db8d344057f9fe2bf09dbfb68a0cbc38e3887c2224466fc9f8455f32e64736f6c634300080a0033000000000000000000000000f892fef9da200d9e84c9b0647ecff0f34633abe8000000000000000000000000c02aaa39b223fe8d0a0e5c4f27ead9083c756cc2000000000000000000000000e592427a0aece92de3edee1f18e0157c058615640000000000000000000000000000000000000000000000000000000000000064",
        "nonce": "0x2a",
        "accessList": []
      },
      "additionalContracts": []
    },
    {
      "hash": "0x433827b8838ef82158e1e510d938ab275d758fda109d41a0ef46f774c22998e1",
      "transactionType": "CREATE",
      "contractName": "TSAggregatorUniswapV3",
      "contractAddress": "0xe4ddca21881bac219af7f217703db0475d2a9f02",
      "function": null,
      "arguments": null,
      "transaction": {
        "type": "0x02",
        "from": "0x813288526ccbfade7aba8836a4ca2462eb886bb7",
        "gas": "0x1313cf",
        "value": "0x0",
        "data": "0x60806040526001805534801561001457600080fd5b50604051610fc9380380610fc983398101604081905261003391610115565b8361003f33600161009c565b600480546001600160a01b039283166001600160a01b0319918216179091556005805462ffffff909416600160a01b026001600160b81b031990941695831695909517929092179093556006805492909316911617905550610173565b6001600160a01b03821660008181526020818152604091829020805460ff191685151590811790915591519182527ff74826f11048fa8ecf33e91132bf280f6582ed97548a84e426b56e98526b9316910160405180910390a25050565b80516001600160a01b038116811461011057600080fd5b919050565b6000806000806080858703121561012b57600080fd5b610134856100f9565b9350610142602086016100f9565b9250610150604086016100f9565b9150606085015162ffffff8116811461016857600080fd5b939692955090935050565b610e47806101826000396000f3fe6080604052600436106100a05760003560e01c806348c314f41161006457806348c314f4146101a0578063516c731c146101b5578063b4f2e8b8146101d5578063c31c9c07146101f5578063ddca3f4314610215578063e4d0c7f01461023957600080fd5b8063022914a7146100ac578063089fe6aa146100f15780630eefdbad146101285780633fc8cef314610160578063469048401461018057600080fd5b366100a757005b600080fd5b3480156100b857600080fd5b506100dc6100c7366004610a35565b60006020819052908152604090205460ff1681565b60405190151581526020015b60405180910390f35b3480156100fd57600080fd5b5060055461011490600160a01b900462ffffff1681565b60405162ffffff90911681526020016100e8565b34801561013457600080fd5b50600454610148906001600160a01b031681565b6040516001600160a01b0390911681526020016100e8565b34801561016c57600080fd5b50600554610148906001600160a01b031681565b34801561018c57600080fd5b50600354610148906001600160a01b031681565b6101b36101ae366004610a57565b610259565b005b3480156101c157600080fd5b506101b36101d0366004610a93565b610416565b3480156101e157600080fd5b506101b36101f0366004610acf565b610472565b34801561020157600080fd5b50600654610148906001600160a01b031681565b34801561022157600080fd5b5061022b60025481565b6040519081526020016100e8565b34801561024557600080fd5b506101b3610254366004610afb565b610573565b60015460011461029d5760405162461bcd60e51b815260206004820152600a6024820152695245454e5452414e435960b01b60448201526064015b60405180910390fd5b600260015560006102ad34610802565b9050600560009054906101000a90046001600160a01b03166001600160a01b031663d0e30db0826040518263ffffffff1660e01b81526004016000604051808303818588803b1580156102ff57600080fd5b505af1158015610313573d6000803e3d6000fd5b505060065460055461033694506001600160a01b0390811693501690508361086e565b60065460408051610100810182526005546001600160a01b0380821683528881166020840152600160a01b90910462ffffff16928201929092528582166060820152600019608082015260a0810184905291169063414bf3899060c0810161039d866108ec565b815260006020909101526040516001600160e01b031960e084901b1681526103c89190600401610bba565b6020604051808303816000875af11580156103e7573d6000803e3d6000fd5b505050506040513d601f19601f8201168201806040525081019061040b9190610c23565b505060018055505050565b3360009081526020819052604090205460ff166104645760405162461bcd60e51b815260206004820152600c60248201526b155b985d5d1a1bdc9a5e995960a21b6044820152606401610294565b61046e828261091f565b5050565b3360009081526020819052604090205460ff166104c05760405162461bcd60e51b815260206004820152600c60248201526b155b985d5d1a1bdc9a5e995960a21b6044820152606401610294565b6103e88211156105125760405162461bcd60e51b815260206004820152601c60248201527f6665652063616e206e6f74206265206d6f7265207468616e20313025000000006044820152606401610294565b6002829055600380546001600160a01b0319166001600160a01b0383169081179091556040805184815260208101929092527fc8242dc5446855370b781abbfc5d882af1d1a3cc29143216aba3558feb0ce925910160405180910390a15050565b6001546001146105b25760405162461bcd60e51b815260206004820152600a6024820152695245454e5452414e435960b01b6044820152606401610294565b6002600155600480546040516368155ec160e01b81526001600160a01b0387811693820193909352336024820152306044820152606481018690529116906368155ec190608401600060405180830381600087803b15801561061357600080fd5b505af1158015610627573d6000803e3d6000fd5b505060065461064692506001600160a01b03878116925016600061086e565b600654610660906001600160a01b0386811691168561086e565b60065460408051610100810182526001600160a01b0387811682526005548082166020840152600160a01b900462ffffff16828401523060608301526080820185905260a0820187905260c08201869052600060e08301819052925163414bf38960e01b81529293169163414bf389916106dc91600401610bba565b6020604051808303816000875af11580156106fb573d6000803e3d6000fd5b505050506040513d601f19601f8201168201806040525081019061071f9190610c23565b600554604051632e1a7d4d60e01b8152600481018390529192506001600160a01b031690632e1a7d4d90602401600060405180830381600087803b15801561076657600080fd5b505af115801561077a573d6000803e3d6000fd5b5050505061078781610802565b9050886001600160a01b03166344bc937b828a6000858c8c896040518863ffffffff1660e01b81526004016107c196959493929190610c3c565b6000604051808303818588803b1580156107da57600080fd5b505af11580156107ee573d6000803e3d6000fd5b505060018055505050505050505050505050565b600060025460001415801561082157506003546001600160a01b031615155b1561086a576000612710600254846108399190610cad565b6108439190610ce2565b60035490915061085c906001600160a01b03168261097c565b6108668184610cf6565b9250505b5090565b600060405163095ea7b360e01b81526001600160a01b03841660048201528260248201526000806044836000895af19150506108a9816109d2565b6108e65760405162461bcd60e51b815260206004820152600e60248201526d1054141493d59157d1905253115160921b6044820152606401610294565b50505050565b60006108f9606483610d0d565b61090490600a610e05565b61090f606484610ce2565b6109199190610cad565b92915050565b6001600160a01b03821660008181526020818152604091829020805460ff191685151590811790915591519182527ff74826f11048fa8ecf33e91132bf280f6582ed97548a84e426b56e98526b9316910160405180910390a25050565b600080600080600085875af19050806109cd5760405162461bcd60e51b815260206004820152601360248201527211551217d514905394d1915497d19052531151606a1b6044820152606401610294565b505050565b60003d826109e457806000803e806000fd5b80602081146109fc578015610a0d5760009250610a12565b816000803e60005115159250610a12565b600192505b5050919050565b80356001600160a01b0381168114610a3057600080fd5b919050565b600060208284031215610a4757600080fd5b610a5082610a19565b9392505050565b600080600060608486031215610a6c57600080fd5b610a7584610a19565b9250610a8360208501610a19565b9150604084013590509250925092565b60008060408385031215610aa657600080fd5b610aaf83610a19565b915060208301358015158114610ac457600080fd5b809150509250929050565b60008060408385031215610ae257600080fd5b82359150610af260208401610a19565b90509250929050565b60008060008060008060008060e0898b031215610b1757600080fd5b610b2089610a19565b9750610b2e60208a01610a19565b9650604089013567ffffffffffffffff80821115610b4b57600080fd5b818b0191508b601f830112610b5f57600080fd5b813581811115610b6e57600080fd5b8c6020828501011115610b8057600080fd5b602083019850809750505050610b9860608a01610a19565b979a96995094979396956080850135955060a08501359460c001359350915050565b81516001600160a01b03908116825260208084015182169083015260408084015162ffffff16908301526060808401518216908301526080808401519083015260a0838101519083015260c0808401519083015260e09283015116918101919091526101000190565b600060208284031215610c3557600080fd5b5051919050565b6001600160a01b038781168252861660208201526040810185905260a06060820181905281018390526000838560c0840137600060c0858401015260c0601f19601f8601168301019050826080830152979650505050505050565b634e487b7160e01b600052601160045260246000fd5b6000816000190483118215151615610cc757610cc7610c97565b500290565b634e487b7160e01b600052601260045260246000fd5b600082610cf157610cf1610ccc565b500490565b600082821015610d0857610d08610c97565b500390565b600082610d1c57610d1c610ccc565b500690565b600181815b80851115610d5c578160001904821115610d4257610d42610c97565b80851615610d4f57918102915b93841c9390800290610d26565b509250929050565b600082610d7357506001610919565b81610d8057506000610919565b8160018114610d965760028114610da057610dbc565b6001915050610919565b60ff841115610db157610db1610c97565b50506001821b610919565b5060208310610133831016604e8410600b8410161715610ddf575081810a610919565b610de98383610d21565b8060001904821115610dfd57610dfd610c97565b029392505050565b6000610a508383610d6456fea2646970667358221220c5c9b18db8d344057f9fe2bf09dbfb68a0cbc38e3887c2224466fc9f8455f32e64736f6c634300080a0033000000000000000000000000f892fef9da200d9e84c9b0647ecff0f34633abe8000000000000000000000000c02aaa39b223fe8d0a0e5c4f27ead9083c756cc2000000000000000000000000e592427a0aece92de3edee1f18e0157c0586156400000000000000000000000000000000000000000000000000000000000001f4",
        "nonce": "0x2b",
        "accessList": []
      },
      "additionalContracts": []
    },
    {
      "hash": "0x2aff2146200811d5583e862d72f136e83c82711dd1da3112d2035002ea1290fd",
      "transactionType": "CREATE",
      "contractName": "TSAggregatorUniswapV3",
      "contractAddress": "0x11733abf0cdb43298f7e949c930188451a9a9ef2",
      "function": null,
      "arguments": null,
      "transaction": {
        "type": "0x02",
        "from": "0x813288526ccbfade7aba8836a4ca2462eb886bb7",
        "gas": "0x1313cf",
        "value": "0x0",
        "data": "0x60806040526001805534801561001457600080fd5b50604051610fc9380380610fc983398101604081905261003391610115565b8361003f33600161009c565b600480546001600160a01b039283166001600160a01b0319918216179091556005805462ffffff909416600160a01b026001600160b81b031990941695831695909517929092179093556006805492909316911617905550610173565b6001600160a01b03821660008181526020818152604091829020805460ff191685151590811790915591519182527ff74826f11048fa8ecf33e91132bf280f6582ed97548a84e426b56e98526b9316910160405180910390a25050565b80516001600160a01b038116811461011057600080fd5b919050565b6000806000806080858703121561012b57600080fd5b610134856100f9565b9350610142602086016100f9565b9250610150604086016100f9565b9150606085015162ffffff8116811461016857600080fd5b939692955090935050565b610e47806101826000396000f3fe6080604052600436106100a05760003560e01c806348c314f41161006457806348c314f4146101a0578063516c731c146101b5578063b4f2e8b8146101d5578063c31c9c07146101f5578063ddca3f4314610215578063e4d0c7f01461023957600080fd5b8063022914a7146100ac578063089fe6aa146100f15780630eefdbad146101285780633fc8cef314610160578063469048401461018057600080fd5b366100a757005b600080fd5b3480156100b857600080fd5b506100dc6100c7366004610a35565b60006020819052908152604090205460ff1681565b60405190151581526020015b60405180910390f35b3480156100fd57600080fd5b5060055461011490600160a01b900462ffffff1681565b60405162ffffff90911681526020016100e8565b34801561013457600080fd5b50600454610148906001600160a01b031681565b6040516001600160a01b0390911681526020016100e8565b34801561016c57600080fd5b50600554610148906001600160a01b031681565b34801561018c57600080fd5b50600354610148906001600160a01b031681565b6101b36101ae366004610a57565b610259565b005b3480156101c157600080fd5b506101b36101d0366004610a93565b610416565b3480156101e157600080fd5b506101b36101f0366004610acf565b610472565b34801561020157600080fd5b50600654610148906001600160a01b031681565b34801561022157600080fd5b5061022b60025481565b6040519081526020016100e8565b34801561024557600080fd5b506101b3610254366004610afb565b610573565b60015460011461029d5760405162461bcd60e51b815260206004820152600a6024820152695245454e5452414e435960b01b60448201526064015b60405180910390fd5b600260015560006102ad34610802565b9050600560009054906101000a90046001600160a01b03166001600160a01b031663d0e30db0826040518263ffffffff1660e01b81526004016000604051808303818588803b1580156102ff57600080fd5b505af1158015610313573d6000803e3d6000fd5b505060065460055461033694506001600160a01b0390811693501690508361086e565b60065460408051610100810182526005546001600160a01b0380821683528881166020840152600160a01b90910462ffffff16928201929092528582166060820152600019608082015260a0810184905291169063414bf3899060c0810161039d866108ec565b815260006020909101526040516001600160e01b031960e084901b1681526103c89190600401610bba565b6020604051808303816000875af11580156103e7573d6000803e3d6000fd5b505050506040513d601f19601f8201168201806040525081019061040b9190610c23565b505060018055505050565b3360009081526020819052604090205460ff166104645760405162461bcd60e51b815260206004820152600c60248201526b155b985d5d1a1bdc9a5e995960a21b6044820152606401610294565b61046e828261091f565b5050565b3360009081526020819052604090205460ff166104c05760405162461bcd60e51b815260206004820152600c60248201526b155b985d5d1a1bdc9a5e995960a21b6044820152606401610294565b6103e88211156105125760405162461bcd60e51b815260206004820152601c60248201527f6665652063616e206e6f74206265206d6f7265207468616e20313025000000006044820152606401610294565b6002829055600380546001600160a01b0319166001600160a01b0383169081179091556040805184815260208101929092527fc8242dc5446855370b781abbfc5d882af1d1a3cc29143216aba3558feb0ce925910160405180910390a15050565b6001546001146105b25760405162461bcd60e51b815260206004820152600a6024820152695245454e5452414e435960b01b6044820152606401610294565b6002600155600480546040516368155ec160e01b81526001600160a01b0387811693820193909352336024820152306044820152606481018690529116906368155ec190608401600060405180830381600087803b15801561061357600080fd5b505af1158015610627573d6000803e3d6000fd5b505060065461064692506001600160a01b03878116925016600061086e565b600654610660906001600160a01b0386811691168561086e565b60065460408051610100810182526001600160a01b0387811682526005548082166020840152600160a01b900462ffffff16828401523060608301526080820185905260a0820187905260c08201869052600060e08301819052925163414bf38960e01b81529293169163414bf389916106dc91600401610bba565b6020604051808303816000875af11580156106fb573d6000803e3d6000fd5b505050506040513d601f19601f8201168201806040525081019061071f9190610c23565b600554604051632e1a7d4d60e01b8152600481018390529192506001600160a01b031690632e1a7d4d90602401600060405180830381600087803b15801561076657600080fd5b505af115801561077a573d6000803e3d6000fd5b5050505061078781610802565b9050886001600160a01b03166344bc937b828a6000858c8c896040518863ffffffff1660e01b81526004016107c196959493929190610c3c565b6000604051808303818588803b1580156107da57600080fd5b505af11580156107ee573d6000803e3d6000fd5b505060018055505050505050505050505050565b600060025460001415801561082157506003546001600160a01b031615155b1561086a576000612710600254846108399190610cad565b6108439190610ce2565b60035490915061085c906001600160a01b03168261097c565b6108668184610cf6565b9250505b5090565b600060405163095ea7b360e01b81526001600160a01b03841660048201528260248201526000806044836000895af19150506108a9816109d2565b6108e65760405162461bcd60e51b815260206004820152600e60248201526d1054141493d59157d1905253115160921b6044820152606401610294565b50505050565b60006108f9606483610d0d565b61090490600a610e05565b61090f606484610ce2565b6109199190610cad565b92915050565b6001600160a01b03821660008181526020818152604091829020805460ff191685151590811790915591519182527ff74826f11048fa8ecf33e91132bf280f6582ed97548a84e426b56e98526b9316910160405180910390a25050565b600080600080600085875af19050806109cd5760405162461bcd60e51b815260206004820152601360248201527211551217d514905394d1915497d19052531151606a1b6044820152606401610294565b505050565b60003d826109e457806000803e806000fd5b80602081146109fc578015610a0d5760009250610a12565b816000803e60005115159250610a12565b600192505b5050919050565b80356001600160a01b0381168114610a3057600080fd5b919050565b600060208284031215610a4757600080fd5b610a5082610a19565b9392505050565b600080600060608486031215610a6c57600080fd5b610a7584610a19565b9250610a8360208501610a19565b9150604084013590509250925092565b60008060408385031215610aa657600080fd5b610aaf83610a19565b915060208301358015158114610ac457600080fd5b809150509250929050565b60008060408385031215610ae257600080fd5b82359150610af260208401610a19565b90509250929050565b60008060008060008060008060e0898b031215610b1757600080fd5b610b2089610a19565b9750610b2e60208a01610a19565b9650604089013567ffffffffffffffff80821115610b4b57600080fd5b818b0191508b601f830112610b5f57600080fd5b813581811115610b6e57600080fd5b8c6020828501011115610b8057600080fd5b602083019850809750505050610b9860608a01610a19565b979a96995094979396956080850135955060a08501359460c001359350915050565b81516001600160a01b03908116825260208084015182169083015260408084015162ffffff16908301526060808401518216908301526080808401519083015260a0838101519083015260c0808401519083015260e09283015116918101919091526101000190565b600060208284031215610c3557600080fd5b5051919050565b6001600160a01b038781168252861660208201526040810185905260a06060820181905281018390526000838560c0840137600060c0858401015260c0601f19601f8601168301019050826080830152979650505050505050565b634e487b7160e01b600052601160045260246000fd5b6000816000190483118215151615610cc757610cc7610c97565b500290565b634e487b7160e01b600052601260045260246000fd5b600082610cf157610cf1610ccc565b500490565b600082821015610d0857610d08610c97565b500390565b600082610d1c57610d1c610ccc565b500690565b600181815b80851115610d5c578160001904821115610d4257610d42610c97565b80851615610d4f57918102915b93841c9390800290610d26565b509250929050565b600082610d7357506001610919565b81610d8057506000610919565b8160018114610d965760028114610da057610dbc565b6001915050610919565b60ff841115610db157610db1610c97565b50506001821b610919565b5060208310610133831016604e8410600b8410161715610ddf575081810a610919565b610de98383610d21565b8060001904821115610dfd57610dfd610c97565b029392505050565b6000610a508383610d6456fea2646970667358221220c5c9b18db8d344057f9fe2bf09dbfb68a0cbc38e3887c2224466fc9f8455f32e64736f6c634300080a0033000000000000000000000000f892fef9da200d9e84c9b0647ecff0f34633abe8000000000000000000000000c02aaa39b223fe8d0a0e5c4f27ead9083c756cc2000000000000000000000000e592427a0aece92de3edee1f18e0157c058615640000000000000000000000000000000000000000000000000000000000000bb8",
        "nonce": "0x2c",
        "accessList": []
      },
      "additionalContracts": []
    },
    {
      "hash": "0x11f2e02bee191a619efaf4b3a93fbc2d77604662dee3e4f732bb59f95e6cb060",
      "transactionType": "CREATE",
      "contractName": "TSAggregatorUniswapV3",
      "contractAddress": "0xb33874810e5395eb49d8bd7e912631db115d5a03",
      "function": null,
      "arguments": null,
      "transaction": {
        "type": "0x02",
        "from": "0x813288526ccbfade7aba8836a4ca2462eb886bb7",
        "gas": "0x1313cf",
        "value": "0x0",
        "data": "0x60806040526001805534801561001457600080fd5b50604051610fc9380380610fc983398101604081905261003391610115565b8361003f33600161009c565b600480546001600160a01b039283166001600160a01b0319918216179091556005805462ffffff909416600160a01b026001600160b81b031990941695831695909517929092179093556006805492909316911617905550610173565b6001600160a01b03821660008181526020818152604091829020805460ff191685151590811790915591519182527ff74826f11048fa8ecf33e91132bf280f6582ed97548a84e426b56e98526b9316910160405180910390a25050565b80516001600160a01b038116811461011057600080fd5b919050565b6000806000806080858703121561012b57600080fd5b610134856100f9565b9350610142602086016100f9565b9250610150604086016100f9565b9150606085015162ffffff8116811461016857600080fd5b939692955090935050565b610e47806101826000396000f3fe6080604052600436106100a05760003560e01c806348c314f41161006457806348c314f4146101a0578063516c731c146101b5578063b4f2e8b8146101d5578063c31c9c07146101f5578063ddca3f4314610215578063e4d0c7f01461023957600080fd5b8063022914a7146100ac578063089fe6aa146100f15780630eefdbad146101285780633fc8cef314610160578063469048401461018057600080fd5b366100a757005b600080fd5b3480156100b857600080fd5b506100dc6100c7366004610a35565b60006020819052908152604090205460ff1681565b60405190151581526020015b60405180910390f35b3480156100fd57600080fd5b5060055461011490600160a01b900462ffffff1681565b60405162ffffff90911681526020016100e8565b34801561013457600080fd5b50600454610148906001600160a01b031681565b6040516001600160a01b0390911681526020016100e8565b34801561016c57600080fd5b50600554610148906001600160a01b031681565b34801561018c57600080fd5b50600354610148906001600160a01b031681565b6101b36101ae366004610a57565b610259565b005b3480156101c157600080fd5b506101b36101d0366004610a93565b610416565b3480156101e157600080fd5b506101b36101f0366004610acf565b610472565b34801561020157600080fd5b50600654610148906001600160a01b031681565b34801561022157600080fd5b5061022b60025481565b6040519081526020016100e8565b34801561024557600080fd5b506101b3610254366004610afb565b610573565b60015460011461029d5760405162461bcd60e51b815260206004820152600a6024820152695245454e5452414e435960b01b60448201526064015b60405180910390fd5b600260015560006102ad34610802565b9050600560009054906101000a90046001600160a01b03166001600160a01b031663d0e30db0826040518263ffffffff1660e01b81526004016000604051808303818588803b1580156102ff57600080fd5b505af1158015610313573d6000803e3d6000fd5b505060065460055461033694506001600160a01b0390811693501690508361086e565b60065460408051610100810182526005546001600160a01b0380821683528881166020840152600160a01b90910462ffffff16928201929092528582166060820152600019608082015260a0810184905291169063414bf3899060c0810161039d866108ec565b815260006020909101526040516001600160e01b031960e084901b1681526103c89190600401610bba565b6020604051808303816000875af11580156103e7573d6000803e3d6000fd5b505050506040513d601f19601f8201168201806040525081019061040b9190610c23565b505060018055505050565b3360009081526020819052604090205460ff166104645760405162461bcd60e51b815260206004820152600c60248201526b155b985d5d1a1bdc9a5e995960a21b6044820152606401610294565b61046e828261091f565b5050565b3360009081526020819052604090205460ff166104c05760405162461bcd60e51b815260206004820152600c60248201526b155b985d5d1a1bdc9a5e995960a21b6044820152606401610294565b6103e88211156105125760405162461bcd60e51b815260206004820152601c60248201527f6665652063616e206e6f74206265206d6f7265207468616e20313025000000006044820152606401610294565b6002829055600380546001600160a01b0319166001600160a01b0383169081179091556040805184815260208101929092527fc8242dc5446855370b781abbfc5d882af1d1a3cc29143216aba3558feb0ce925910160405180910390a15050565b6001546001146105b25760405162461bcd60e51b815260206004820152600a6024820152695245454e5452414e435960b01b6044820152606401610294565b6002600155600480546040516368155ec160e01b81526001600160a01b0387811693820193909352336024820152306044820152606481018690529116906368155ec190608401600060405180830381600087803b15801561061357600080fd5b505af1158015610627573d6000803e3d6000fd5b505060065461064692506001600160a01b03878116925016600061086e565b600654610660906001600160a01b0386811691168561086e565b60065460408051610100810182526001600160a01b0387811682526005548082166020840152600160a01b900462ffffff16828401523060608301526080820185905260a0820187905260c08201869052600060e08301819052925163414bf38960e01b81529293169163414bf389916106dc91600401610bba565b6020604051808303816000875af11580156106fb573d6000803e3d6000fd5b505050506040513d601f19601f8201168201806040525081019061071f9190610c23565b600554604051632e1a7d4d60e01b8152600481018390529192506001600160a01b031690632e1a7d4d90602401600060405180830381600087803b15801561076657600080fd5b505af115801561077a573d6000803e3d6000fd5b5050505061078781610802565b9050886001600160a01b03166344bc937b828a6000858c8c896040518863ffffffff1660e01b81526004016107c196959493929190610c3c565b6000604051808303818588803b1580156107da57600080fd5b505af11580156107ee573d6000803e3d6000fd5b505060018055505050505050505050505050565b600060025460001415801561082157506003546001600160a01b031615155b1561086a576000612710600254846108399190610cad565b6108439190610ce2565b60035490915061085c906001600160a01b03168261097c565b6108668184610cf6565b9250505b5090565b600060405163095ea7b360e01b81526001600160a01b03841660048201528260248201526000806044836000895af19150506108a9816109d2565b6108e65760405162461bcd60e51b815260206004820152600e60248201526d1054141493d59157d1905253115160921b6044820152606401610294565b50505050565b60006108f9606483610d0d565b61090490600a610e05565b61090f606484610ce2565b6109199190610cad565b92915050565b6001600160a01b03821660008181526020818152604091829020805460ff191685151590811790915591519182527ff74826f11048fa8ecf33e91132bf280f6582ed97548a84e426b56e98526b9316910160405180910390a25050565b600080600080600085875af19050806109cd5760405162461bcd60e51b815260206004820152601360248201527211551217d514905394d1915497d19052531151606a1b6044820152606401610294565b505050565b60003d826109e457806000803e806000fd5b80602081146109fc578015610a0d5760009250610a12565b816000803e60005115159250610a12565b600192505b5050919050565b80356001600160a01b0381168114610a3057600080fd5b919050565b600060208284031215610a4757600080fd5b610a5082610a19565b9392505050565b600080600060608486031215610a6c57600080fd5b610a7584610a19565b9250610a8360208501610a19565b9150604084013590509250925092565b60008060408385031215610aa657600080fd5b610aaf83610a19565b915060208301358015158114610ac457600080fd5b809150509250929050565b60008060408385031215610ae257600080fd5b82359150610af260208401610a19565b90509250929050565b60008060008060008060008060e0898b031215610b1757600080fd5b610b2089610a19565b9750610b2e60208a01610a19565b9650604089013567ffffffffffffffff80821115610b4b57600080fd5b818b0191508b601f830112610b5f57600080fd5b813581811115610b6e57600080fd5b8c6020828501011115610b8057600080fd5b602083019850809750505050610b9860608a01610a19565b979a96995094979396956080850135955060a08501359460c001359350915050565b81516001600160a01b03908116825260208084015182169083015260408084015162ffffff16908301526060808401518216908301526080808401519083015260a0838101519083015260c0808401519083015260e09283015116918101919091526101000190565b600060208284031215610c3557600080fd5b5051919050565b6001600160a01b038781168252861660208201526040810185905260a06060820181905281018390526000838560c0840137600060c0858401015260c0601f19601f8601168301019050826080830152979650505050505050565b634e487b7160e01b600052601160045260246000fd5b6000816000190483118215151615610cc757610cc7610c97565b500290565b634e487b7160e01b600052601260045260246000fd5b600082610cf157610cf1610ccc565b500490565b600082821015610d0857610d08610c97565b500390565b600082610d1c57610d1c610ccc565b500690565b600181815b80851115610d5c578160001904821115610d4257610d42610c97565b80851615610d4f57918102915b93841c9390800290610d26565b509250929050565b600082610d7357506001610919565b81610d8057506000610919565b8160018114610d965760028114610da057610dbc565b6001915050610919565b60ff841115610db157610db1610c97565b50506001821b610919565b5060208310610133831016604e8410600b8410161715610ddf575081810a610919565b610de98383610d21565b8060001904821115610dfd57610dfd610c97565b029392505050565b6000610a508383610d6456fea2646970667358221220c5c9b18db8d344057f9fe2bf09dbfb68a0cbc38e3887c2224466fc9f8455f32e64736f6c634300080a0033000000000000000000000000f892fef9da200d9e84c9b0647ecff0f34633abe8000000000000000000000000c02aaa39b223fe8d0a0e5c4f27ead9083c756cc2000000000000000000000000e592427a0aece92de3edee1f18e0157c058615640000000000000000000000000000000000000000000000000000000000002710",
        "nonce": "0x2d",
        "accessList": []
      },
      "additionalContracts": []
    },
    {
      "hash": "0x9dac346a5d4e295a1d798f423159ba2fa5482fdf15f2a87cfdfe5964f5cad6a0",
      "transactionType": "CREATE",
      "contractName": "TSAggregatorUniswapV2",
      "contractAddress": "0x86904eb2b3c743400d03f929f2246efa80b91215",
      "function": "setOwner(address,bool)",
      "arguments": [
        "8f692d7abc6cdf567571276f76112ec9a01de309",
        "true"
      ],
      "transaction": {
        "type": "0x02",
        "from": "0x813288526ccbfade7aba8836a4ca2462eb886bb7",
        "to": "0x86904eb2b3c743400d03f929f2246efa80b91215",
        "gas": "0x10210",
        "value": "0x0",
        "data": "0x516c731c0000000000000000000000008f692d7abc6cdf567571276f76112ec9a01de3090000000000000000000000000000000000000000000000000000000000000001",
        "nonce": "0x2e",
        "accessList": []
      },
      "additionalContracts": []
    },
    {
      "hash": "0x2356db3923b9e9424fd58f6276c3c37c751402be67f980e5bf34fa3880eebc64",
      "transactionType": "CREATE",
      "contractName": "TSAggregatorUniswapV2",
      "contractAddress": "0xbf365e79aa44a2164da135100c57fdb6635ae870",
      "function": "setOwner(address,bool)",
      "arguments": [
        "8f692d7abc6cdf567571276f76112ec9a01de309",
        "true"
      ],
      "transaction": {
        "type": "0x02",
        "from": "0x813288526ccbfade7aba8836a4ca2462eb886bb7",
        "to": "0xbf365e79aa44a2164da135100c57fdb6635ae870",
        "gas": "0x10210",
        "value": "0x0",
        "data": "0x516c731c0000000000000000000000008f692d7abc6cdf567571276f76112ec9a01de3090000000000000000000000000000000000000000000000000000000000000001",
        "nonce": "0x2f",
        "accessList": []
      },
      "additionalContracts": []
    },
    {
      "hash": "0x853d58036513455a3ad7354f5f8b96615f429ad8358455b2500b2236615b28a7",
      "transactionType": "CREATE",
      "contractName": "TSAggregatorUniswapV3",
      "contractAddress": "0xbd68cbe6c247e2c3a0e36b8f0e24964914f26ee8",
      "function": "setOwner(address,bool)",
      "arguments": [
        "8f692d7abc6cdf567571276f76112ec9a01de309",
        "true"
      ],
      "transaction": {
        "type": "0x02",
        "from": "0x813288526ccbfade7aba8836a4ca2462eb886bb7",
        "to": "0xbd68cbe6c247e2c3a0e36b8f0e24964914f26ee8",
        "gas": "0x1022e",
        "value": "0x0",
        "data": "0x516c731c0000000000000000000000008f692d7abc6cdf567571276f76112ec9a01de3090000000000000000000000000000000000000000000000000000000000000001",
        "nonce": "0x30",
        "accessList": []
      },
      "additionalContracts": []
    },
    {
      "hash": "0x5d75cc79f0d6db4727529e099537522ac7b48c54cdd492f5faacbabca77a5bc7",
      "transactionType": "CREATE",
      "contractName": "TSAggregatorUniswapV3",
      "contractAddress": "0xe4ddca21881bac219af7f217703db0475d2a9f02",
      "function": "setOwner(address,bool)",
      "arguments": [
        "8f692d7abc6cdf567571276f76112ec9a01de309",
        "true"
      ],
      "transaction": {
        "type": "0x02",
        "from": "0x813288526ccbfade7aba8836a4ca2462eb886bb7",
        "to": "0xe4ddca21881bac219af7f217703db0475d2a9f02",
        "gas": "0x1022e",
        "value": "0x0",
        "data": "0x516c731c0000000000000000000000008f692d7abc6cdf567571276f76112ec9a01de3090000000000000000000000000000000000000000000000000000000000000001",
        "nonce": "0x31",
        "accessList": []
      },
      "additionalContracts": []
    },
    {
      "hash": "0x97bb0b27492880803d6859696732ab26a65f81e96ac9c14e4c4d6ba5e7211a96",
      "transactionType": "CREATE",
      "contractName": "TSAggregatorUniswapV3",
      "contractAddress": "0x11733abf0cdb43298f7e949c930188451a9a9ef2",
      "function": "setOwner(address,bool)",
      "arguments": [
        "8f692d7abc6cdf567571276f76112ec9a01de309",
        "true"
      ],
      "transaction": {
        "type": "0x02",
        "from": "0x813288526ccbfade7aba8836a4ca2462eb886bb7",
        "to": "0x11733abf0cdb43298f7e949c930188451a9a9ef2",
        "gas": "0x1022e",
        "value": "0x0",
        "data": "0x516c731c0000000000000000000000008f692d7abc6cdf567571276f76112ec9a01de3090000000000000000000000000000000000000000000000000000000000000001",
        "nonce": "0x32",
        "accessList": []
      },
      "additionalContracts": []
    },
    {
      "hash": "0x6bb349cb0c537e1d9b03228116d5d679b1c8b9e8fa9e19721d3af4c5437f6e36",
      "transactionType": "CREATE",
      "contractName": "TSAggregatorUniswapV3",
      "contractAddress": "0xb33874810e5395eb49d8bd7e912631db115d5a03",
      "function": "setOwner(address,bool)",
      "arguments": [
        "8f692d7abc6cdf567571276f76112ec9a01de309",
        "true"
      ],
      "transaction": {
        "type": "0x02",
        "from": "0x813288526ccbfade7aba8836a4ca2462eb886bb7",
        "to": "0xb33874810e5395eb49d8bd7e912631db115d5a03",
        "gas": "0x1022e",
        "value": "0x0",
        "data": "0x516c731c0000000000000000000000008f692d7abc6cdf567571276f76112ec9a01de3090000000000000000000000000000000000000000000000000000000000000001",
        "nonce": "0x33",
        "accessList": []
      },
      "additionalContracts": []
    },
    {
      "hash": "0xe5a5b0cc61112585d53d5a3df0a022df9b48854160e35445875b929effe57266",
      "transactionType": "CREATE",
      "contractName": "TSAggregatorUniswapV2",
      "contractAddress": "0x86904eb2b3c743400d03f929f2246efa80b91215",
      "function": "setFee(uint256,address)",
      "arguments": [
        "1e",
        "7d8911eb1c72f0ba29302be30301b75cec81f622"
      ],
      "transaction": {
        "type": "0x02",
        "from": "0x813288526ccbfade7aba8836a4ca2462eb886bb7",
        "to": "0x86904eb2b3c743400d03f929f2246efa80b91215",
        "gas": "0x18e80",
        "value": "0x0",
        "data": "0xb4f2e8b8000000000000000000000000000000000000000000000000000000000000001e0000000000000000000000007d8911eb1c72f0ba29302be30301b75cec81f622",
        "nonce": "0x34",
        "accessList": []
      },
      "additionalContracts": []
    },
    {
      "hash": "0xb565bde52a116019f20675a89363140e9a8641f665b27ce5488b2eef2265c91d",
      "transactionType": "CREATE",
      "contractName": "TSAggregatorUniswapV2",
      "contractAddress": "0xbf365e79aa44a2164da135100c57fdb6635ae870",
      "function": "setFee(uint256,address)",
      "arguments": [
        "1e",
        "7d8911eb1c72f0ba29302be30301b75cec81f622"
      ],
      "transaction": {
        "type": "0x02",
        "from": "0x813288526ccbfade7aba8836a4ca2462eb886bb7",
        "to": "0xbf365e79aa44a2164da135100c57fdb6635ae870",
        "gas": "0x18e80",
        "value": "0x0",
        "data": "0xb4f2e8b8000000000000000000000000000000000000000000000000000000000000001e0000000000000000000000007d8911eb1c72f0ba29302be30301b75cec81f622",
        "nonce": "0x35",
        "accessList": []
      },
      "additionalContracts": []
    },
    {
      "hash": "0xb3aa41c50055960f86de42f3e622662937d1bd7a3baf500a22d7914802669cc4",
      "transactionType": "CREATE",
      "contractName": "TSAggregatorUniswapV3",
      "contractAddress": "0xbd68cbe6c247e2c3a0e36b8f0e24964914f26ee8",
      "function": "setFee(uint256,address)",
      "arguments": [
        "1e",
        "7d8911eb1c72f0ba29302be30301b75cec81f622"
      ],
      "transaction": {
        "type": "0x02",
        "from": "0x813288526ccbfade7aba8836a4ca2462eb886bb7",
        "to": "0xbd68cbe6c247e2c3a0e36b8f0e24964914f26ee8",
        "gas": "0x18ea0",
        "value": "0x0",
        "data": "0xb4f2e8b8000000000000000000000000000000000000000000000000000000000000001e0000000000000000000000007d8911eb1c72f0ba29302be30301b75cec81f622",
        "nonce": "0x36",
        "accessList": []
      },
      "additionalContracts": []
    },
    {
      "hash": "0xe9ab32a23e3c61ec0fa96641fc0312dad1c167b7bbe9e669a382b98210bf7e6d",
      "transactionType": "CREATE",
      "contractName": "TSAggregatorUniswapV3",
      "contractAddress": "0xe4ddca21881bac219af7f217703db0475d2a9f02",
      "function": "setFee(uint256,address)",
      "arguments": [
        "1e",
        "7d8911eb1c72f0ba29302be30301b75cec81f622"
      ],
      "transaction": {
        "type": "0x02",
        "from": "0x813288526ccbfade7aba8836a4ca2462eb886bb7",
        "to": "0xe4ddca21881bac219af7f217703db0475d2a9f02",
        "gas": "0x18ea0",
        "value": "0x0",
        "data": "0xb4f2e8b8000000000000000000000000000000000000000000000000000000000000001e0000000000000000000000007d8911eb1c72f0ba29302be30301b75cec81f622",
        "nonce": "0x37",
        "accessList": []
      },
      "additionalContracts": []
    },
    {
      "hash": "0x1499d8c99309e10d96b25084a2fd3e4d06a0a3fecb74f6bc733f7123d12cd19e",
      "transactionType": "CREATE",
      "contractName": "TSAggregatorUniswapV3",
      "contractAddress": "0x11733abf0cdb43298f7e949c930188451a9a9ef2",
      "function": "setFee(uint256,address)",
      "arguments": [
        "1e",
        "7d8911eb1c72f0ba29302be30301b75cec81f622"
      ],
      "transaction": {
        "type": "0x02",
        "from": "0x813288526ccbfade7aba8836a4ca2462eb886bb7",
        "to": "0x11733abf0cdb43298f7e949c930188451a9a9ef2",
        "gas": "0x18ea0",
        "value": "0x0",
        "data": "0xb4f2e8b8000000000000000000000000000000000000000000000000000000000000001e0000000000000000000000007d8911eb1c72f0ba29302be30301b75cec81f622",
        "nonce": "0x38",
        "accessList": []
      },
      "additionalContracts": []
    },
    {
      "hash": "0x13d923c5685fb0c49595312901dee440d434a9c3afbe14c445f7f7ad25dc6909",
      "transactionType": "CREATE",
      "contractName": "TSAggregatorUniswapV3",
      "contractAddress": "0xb33874810e5395eb49d8bd7e912631db115d5a03",
      "function": "setFee(uint256,address)",
      "arguments": [
        "1e",
        "7d8911eb1c72f0ba29302be30301b75cec81f622"
      ],
      "transaction": {
        "type": "0x02",
        "from": "0x813288526ccbfade7aba8836a4ca2462eb886bb7",
        "to": "0xb33874810e5395eb49d8bd7e912631db115d5a03",
        "gas": "0x18ea0",
        "value": "0x0",
        "data": "0xb4f2e8b8000000000000000000000000000000000000000000000000000000000000001e0000000000000000000000007d8911eb1c72f0ba29302be30301b75cec81f622",
        "nonce": "0x39",
        "accessList": []
      },
      "additionalContracts": []
    }
  ],
  "receipts": [
    {
      "transactionHash": "0x67313ad57e1aa189feee76fea10bf033a8a197e5f3bd556ac5cb6f9ed3679e3d",
      "transactionIndex": "0x3b",
      "blockHash": "0x82a10e52020155c7228457fdada9bf190787088d20a3e07758ac20d04983fcb8",
      "blockNumber": "0xecedc6",
      "from": "0x813288526ccbfade7aba8836a4ca2462eb886bb7",
      "to": null,
      "cumulativeGasUsed": "0x307687",
      "gasUsed": "0xe24c3",
      "contractAddress": "0x86904eb2b3c743400d03f929f2246efa80b91215",
      "logs": [
        {
          "address": "0x86904eb2b3c743400d03f929f2246efa80b91215",
          "topics": [
            "0xf74826f11048fa8ecf33e91132bf280f6582ed97548a84e426b56e98526b9316",
            "0x000000000000000000000000813288526ccbfade7aba8836a4ca2462eb886bb7"
          ],
          "data": "0x0000000000000000000000000000000000000000000000000000000000000001",
          "blockHash": "0x82a10e52020155c7228457fdada9bf190787088d20a3e07758ac20d04983fcb8",
          "blockNumber": "0xecedc6",
          "transactionHash": "0x67313ad57e1aa189feee76fea10bf033a8a197e5f3bd556ac5cb6f9ed3679e3d",
          "transactionIndex": "0x3b",
          "logIndex": "0x18",
          "removed": false
        }
      ],
      "status": "0x1",
      "logsBloom": "0x00002000000000000000000000000000000000000000000000000000000000000000000000000000000000000000000000000000000000000000000000000000000000008000000000000000000000000000080000000000001000000000000000000000000004000000000000000000000000100000000000000000000000000000000000000000000000000000000000000020000000000000000000000000000000000000000000000000000000000000000000000000000000000000000000000000010000000000008000000000000000000000000000000000000000000000000000000000000000000000000000000000000000000000000000000000",
      "type": "0x2",
      "effectiveGasPrice": "0x9b76731cb"
    },
    {
      "transactionHash": "0x25a058df28f0f733455ce4772498bc4938f16db3071d17391664e9e7d2f11ee0",
      "transactionIndex": "0x3c",
      "blockHash": "0x82a10e52020155c7228457fdada9bf190787088d20a3e07758ac20d04983fcb8",
      "blockNumber": "0xecedc6",
      "from": "0x813288526ccbfade7aba8836a4ca2462eb886bb7",
      "to": null,
      "cumulativeGasUsed": "0x3e9b4a",
      "gasUsed": "0xe24c3",
      "contractAddress": "0xbf365e79aa44a2164da135100c57fdb6635ae870",
      "logs": [
        {
          "address": "0xbf365e79aa44a2164da135100c57fdb6635ae870",
          "topics": [
            "0xf74826f11048fa8ecf33e91132bf280f6582ed97548a84e426b56e98526b9316",
            "0x000000000000000000000000813288526ccbfade7aba8836a4ca2462eb886bb7"
          ],
          "data": "0x0000000000000000000000000000000000000000000000000000000000000001",
          "blockHash": "0x82a10e52020155c7228457fdada9bf190787088d20a3e07758ac20d04983fcb8",
          "blockNumber": "0xecedc6",
          "transactionHash": "0x25a058df28f0f733455ce4772498bc4938f16db3071d17391664e9e7d2f11ee0",
          "transactionIndex": "0x3c",
          "logIndex": "0x19",
          "removed": false
        }
      ],
      "status": "0x1",
      "logsBloom": "0x00000000000000000000000000000000000020000000000000000000000000000000000000000000000000000000000000000000200000000000000000000000000000008000000000000000000000000000000000000000001000000000000000000000000000000000000000000000000000100000000000000000000000000000000000000000000000000000010000000020000000000000000000000000000000000000000000000000000000000000000000000000000000000000000000000000010000000000008000000000000000000000000000000000000000000000000000000000000000000000000000000000000000000000000000000000",
      "type": "0x2",
      "effectiveGasPrice": "0x9b76731cb"
    },
    {
      "transactionHash": "0x8e645b59b0cb5098ed81e801fc1de892030eb9593ff8eb663408c4b50596c2dc",
      "transactionIndex": "0x3d",
      "blockHash": "0x82a10e52020155c7228457fdada9bf190787088d20a3e07758ac20d04983fcb8",
      "blockNumber": "0xecedc6",
      "from": "0x813288526ccbfade7aba8836a4ca2462eb886bb7",
      "to": null,
      "cumulativeGasUsed": "0x4d4805",
      "gasUsed": "0xeacbb",
      "contractAddress": "0xbd68cbe6c247e2c3a0e36b8f0e24964914f26ee8",
      "logs": [
        {
          "address": "0xbd68cbe6c247e2c3a0e36b8f0e24964914f26ee8",
          "topics": [
            "0xf74826f11048fa8ecf33e91132bf280f6582ed97548a84e426b56e98526b9316",
            "0x000000000000000000000000813288526ccbfade7aba8836a4ca2462eb886bb7"
          ],
          "data": "0x0000000000000000000000000000000000000000000000000000000000000001",
          "blockHash": "0x82a10e52020155c7228457fdada9bf190787088d20a3e07758ac20d04983fcb8",
          "blockNumber": "0xecedc6",
          "transactionHash": "0x8e645b59b0cb5098ed81e801fc1de892030eb9593ff8eb663408c4b50596c2dc",
          "transactionIndex": "0x3d",
          "logIndex": "0x1a",
          "removed": false
        }
      ],
      "status": "0x1",
      "logsBloom": "0x00000000000000000000000000000000000000000000000000000000000000000000000000000000000000000000000000000000000000000000000000000000000000008000000000000000000000000000000000000000001000000000000000000000000000000000000000000000000000100000000000000000000000000002000000000000000000000000000000000020000000000000000000000000000002000000000000000000000000000000000000000000000000000000000000000000010000000000008000000000000000000000000000000000000000000080000000000000000000000000000000000000000000000000000000000000",
      "type": "0x2",
      "effectiveGasPrice": "0x9b76731cb"
    },
    {
      "transactionHash": "0x433827b8838ef82158e1e510d938ab275d758fda109d41a0ef46f774c22998e1",
      "transactionIndex": "0x3e",
      "blockHash": "0x82a10e52020155c7228457fdada9bf190787088d20a3e07758ac20d04983fcb8",
      "blockNumber": "0xecedc6",
      "from": "0x813288526ccbfade7aba8836a4ca2462eb886bb7",
      "to": null,
      "cumulativeGasUsed": "0x5bf4cc",
      "gasUsed": "0xeacc7",
      "contractAddress": "0xe4ddca21881bac219af7f217703db0475d2a9f02",
      "logs": [
        {
          "address": "0xe4ddca21881bac219af7f217703db0475d2a9f02",
          "topics": [
            "0xf74826f11048fa8ecf33e91132bf280f6582ed97548a84e426b56e98526b9316",
            "0x000000000000000000000000813288526ccbfade7aba8836a4ca2462eb886bb7"
          ],
          "data": "0x0000000000000000000000000000000000000000000000000000000000000001",
          "blockHash": "0x82a10e52020155c7228457fdada9bf190787088d20a3e07758ac20d04983fcb8",
          "blockNumber": "0xecedc6",
          "transactionHash": "0x433827b8838ef82158e1e510d938ab275d758fda109d41a0ef46f774c22998e1",
          "transactionIndex": "0x3e",
          "logIndex": "0x1b",
          "removed": false
        }
      ],
      "status": "0x1",
      "logsBloom": "0x00000000000000000000000000000000000000000000000000000000000000000000000000000000000000000000000000000000000000000020000000200000000000008000000000000000000000000000000000000000001000000000000000000000000000000000000000000000000000100000000000000000000000000000000000000000000000000000000000000020000000000000000000000000000000000000000000000000000000000000000000000000000000000000000000000000010000000000008000000000000000000000000000000000000000000000000000000000000000000000000000000000000800000000000000000000",
      "type": "0x2",
      "effectiveGasPrice": "0x9b76731cb"
    },
    {
      "transactionHash": "0x2aff2146200811d5583e862d72f136e83c82711dd1da3112d2035002ea1290fd",
      "transactionIndex": "0x3f",
      "blockHash": "0x82a10e52020155c7228457fdada9bf190787088d20a3e07758ac20d04983fcb8",
      "blockNumber": "0xecedc6",
      "from": "0x813288526ccbfade7aba8836a4ca2462eb886bb7",
      "to": null,
      "cumulativeGasUsed": "0x6aa193",
      "gasUsed": "0xeacc7",
      "contractAddress": "0x11733abf0cdb43298f7e949c930188451a9a9ef2",
      "logs": [
        {
          "address": "0x11733abf0cdb43298f7e949c930188451a9a9ef2",
          "topics": [
            "0xf74826f11048fa8ecf33e91132bf280f6582ed97548a84e426b56e98526b9316",
            "0x000000000000000000000000813288526ccbfade7aba8836a4ca2462eb886bb7"
          ],
          "data": "0x0000000000000000000000000000000000000000000000000000000000000001",
          "blockHash": "0x82a10e52020155c7228457fdada9bf190787088d20a3e07758ac20d04983fcb8",
          "blockNumber": "0xecedc6",
          "transactionHash": "0x2aff2146200811d5583e862d72f136e83c82711dd1da3112d2035002ea1290fd",
          "transactionIndex": "0x3f",
          "logIndex": "0x1c",
          "removed": false
        }
      ],
      "status": "0x1",
      "logsBloom": "0x00000000000000000000000000000000000000000000000000000000000000000000000000000000000000000000000000000000000000000000000000000000000000008000000000000000000000000000000000000000001000000000000000000000000000000000000000000000000000100000000000000000000000000000000000200000000000000000000000000020000000000000000000000000000000000000000000000000000000000100000000000000000000000000000000000000010000000000008000000000000000000000000000000000000000000080000000000000000000000000000000000000000000000000000000000000",
      "type": "0x2",
      "effectiveGasPrice": "0x9b76731cb"
    },
    {
      "transactionHash": "0x11f2e02bee191a619efaf4b3a93fbc2d77604662dee3e4f732bb59f95e6cb060",
      "transactionIndex": "0x40",
      "blockHash": "0x82a10e52020155c7228457fdada9bf190787088d20a3e07758ac20d04983fcb8",
      "blockNumber": "0xecedc6",
      "from": "0x813288526ccbfade7aba8836a4ca2462eb886bb7",
      "to": null,
      "cumulativeGasUsed": "0x794e5a",
      "gasUsed": "0xeacc7",
      "contractAddress": "0xb33874810e5395eb49d8bd7e912631db115d5a03",
      "logs": [
        {
          "address": "0xb33874810e5395eb49d8bd7e912631db115d5a03",
          "topics": [
            "0xf74826f11048fa8ecf33e91132bf280f6582ed97548a84e426b56e98526b9316",
            "0x000000000000000000000000813288526ccbfade7aba8836a4ca2462eb886bb7"
          ],
          "data": "0x0000000000000000000000000000000000000000000000000000000000000001",
          "blockHash": "0x82a10e52020155c7228457fdada9bf190787088d20a3e07758ac20d04983fcb8",
          "blockNumber": "0xecedc6",
          "transactionHash": "0x11f2e02bee191a619efaf4b3a93fbc2d77604662dee3e4f732bb59f95e6cb060",
          "transactionIndex": "0x40",
          "logIndex": "0x1d",
          "removed": false
        }
      ],
      "status": "0x1",
      "logsBloom": "0x00040000000000000000000000000000000000000000000000000000000000000000000000000000000000000000000000000000000000000000000000000000000000008000000000000001000000000000040000000000001000000000000000000000000000000000000000000000000000100000000000000000000000000000000000000000000000000000000000000020000000000000000000000000000000000000000000000000000000000000000000000000000000000000000000000000010000000000008000000000000000000000000000000000000000000000000000000000000000000000000000000000000000000000000000000000",
      "type": "0x2",
      "effectiveGasPrice": "0x9b76731cb"
    },
    {
      "transactionHash": "0x9dac346a5d4e295a1d798f423159ba2fa5482fdf15f2a87cfdfe5964f5cad6a0",
      "transactionIndex": "0x41",
      "blockHash": "0x82a10e52020155c7228457fdada9bf190787088d20a3e07758ac20d04983fcb8",
      "blockNumber": "0xecedc6",
      "from": "0x813288526ccbfade7aba8836a4ca2462eb886bb7",
      "to": "0x86904eb2b3c743400d03f929f2246efa80b91215",
      "cumulativeGasUsed": "0x7a0930",
      "gasUsed": "0xbad6",
      "contractAddress": null,
      "logs": [
        {
          "address": "0x86904eb2b3c743400d03f929f2246efa80b91215",
          "topics": [
            "0xf74826f11048fa8ecf33e91132bf280f6582ed97548a84e426b56e98526b9316",
            "0x0000000000000000000000008f692d7abc6cdf567571276f76112ec9a01de309"
          ],
          "data": "0x0000000000000000000000000000000000000000000000000000000000000001",
          "blockHash": "0x82a10e52020155c7228457fdada9bf190787088d20a3e07758ac20d04983fcb8",
          "blockNumber": "0xecedc6",
          "transactionHash": "0x9dac346a5d4e295a1d798f423159ba2fa5482fdf15f2a87cfdfe5964f5cad6a0",
          "transactionIndex": "0x41",
          "logIndex": "0x1e",
          "removed": false
        }
      ],
      "status": "0x1",
      "logsBloom": "0x00002000000000000000000000000000000000000000000000000000000000000000000000000000000000000000000000000000000000000000000000020000000000000000000000000000000000000000080000000000000000000000000000000000000004000000000000000000000000100000000000000000000000000000000000000000000000000000000000000000000000000001000000800000000000000000000000000000000000000000000000000000000000000000000000000000010000000000008000000000000000000000000000000000000000000000000000000000000000000000000000000000000000000000000000000000",
      "type": "0x2",
      "effectiveGasPrice": "0x9b76731cb"
    },
    {
      "transactionHash": "0x2356db3923b9e9424fd58f6276c3c37c751402be67f980e5bf34fa3880eebc64",
      "transactionIndex": "0x42",
      "blockHash": "0x82a10e52020155c7228457fdada9bf190787088d20a3e07758ac20d04983fcb8",
      "blockNumber": "0xecedc6",
      "from": "0x813288526ccbfade7aba8836a4ca2462eb886bb7",
      "to": "0xbf365e79aa44a2164da135100c57fdb6635ae870",
      "cumulativeGasUsed": "0x7ac406",
      "gasUsed": "0xbad6",
      "contractAddress": null,
      "logs": [
        {
          "address": "0xbf365e79aa44a2164da135100c57fdb6635ae870",
          "topics": [
            "0xf74826f11048fa8ecf33e91132bf280f6582ed97548a84e426b56e98526b9316",
            "0x0000000000000000000000008f692d7abc6cdf567571276f76112ec9a01de309"
          ],
          "data": "0x0000000000000000000000000000000000000000000000000000000000000001",
          "blockHash": "0x82a10e52020155c7228457fdada9bf190787088d20a3e07758ac20d04983fcb8",
          "blockNumber": "0xecedc6",
          "transactionHash": "0x2356db3923b9e9424fd58f6276c3c37c751402be67f980e5bf34fa3880eebc64",
          "transactionIndex": "0x42",
          "logIndex": "0x1f",
          "removed": false
        }
      ],
      "status": "0x1",
      "logsBloom": "0x00000000000000000000000000000000000020000000000000000000000000000000000000000000000000000000000000000000200000000000000000020000000000000000000000000000000000000000000000000000000000000000000000000000000000000000000000000000000000100000000000000000000000000000000000000000000000000000010000000000000000000001000000800000000000000000000000000000000000000000000000000000000000000000000000000000010000000000008000000000000000000000000000000000000000000000000000000000000000000000000000000000000000000000000000000000",
      "type": "0x2",
      "effectiveGasPrice": "0x9b76731cb"
    },
    {
      "transactionHash": "0x853d58036513455a3ad7354f5f8b96615f429ad8358455b2500b2236615b28a7",
      "transactionIndex": "0x43",
      "blockHash": "0x82a10e52020155c7228457fdada9bf190787088d20a3e07758ac20d04983fcb8",
      "blockNumber": "0xecedc6",
      "from": "0x813288526ccbfade7aba8836a4ca2462eb886bb7",
      "to": "0xbd68cbe6c247e2c3a0e36b8f0e24964914f26ee8",
      "cumulativeGasUsed": "0x7b7ef2",
      "gasUsed": "0xbaec",
      "contractAddress": null,
      "logs": [
        {
          "address": "0xbd68cbe6c247e2c3a0e36b8f0e24964914f26ee8",
          "topics": [
            "0xf74826f11048fa8ecf33e91132bf280f6582ed97548a84e426b56e98526b9316",
            "0x0000000000000000000000008f692d7abc6cdf567571276f76112ec9a01de309"
          ],
          "data": "0x0000000000000000000000000000000000000000000000000000000000000001",
          "blockHash": "0x82a10e52020155c7228457fdada9bf190787088d20a3e07758ac20d04983fcb8",
          "blockNumber": "0xecedc6",
          "transactionHash": "0x853d58036513455a3ad7354f5f8b96615f429ad8358455b2500b2236615b28a7",
          "transactionIndex": "0x43",
          "logIndex": "0x20",
          "removed": false
        }
      ],
      "status": "0x1",
      "logsBloom": "0x00000000000000000000000000000000000000000000000000000000000000000000000000000000000000000000000000000000000000000000000000020000000000000000000000000000000000000000000000000000000000000000000000000000000000000000000000000000000000100000000000000000000000000002000000000000000000000000000000000000000000000001000000800000000002000000000000000000000000000000000000000000000000000000000000000000010000000000008000000000000000000000000000000000000000000080000000000000000000000000000000000000000000000000000000000000",
      "type": "0x2",
      "effectiveGasPrice": "0x9b76731cb"
    },
    {
      "transactionHash": "0x5d75cc79f0d6db4727529e099537522ac7b48c54cdd492f5faacbabca77a5bc7",
      "transactionIndex": "0x44",
      "blockHash": "0x82a10e52020155c7228457fdada9bf190787088d20a3e07758ac20d04983fcb8",
      "blockNumber": "0xecedc6",
      "from": "0x813288526ccbfade7aba8836a4ca2462eb886bb7",
      "to": "0xe4ddca21881bac219af7f217703db0475d2a9f02",
      "cumulativeGasUsed": "0x7c39de",
      "gasUsed": "0xbaec",
      "contractAddress": null,
      "logs": [
        {
          "address": "0xe4ddca21881bac219af7f217703db0475d2a9f02",
          "topics": [
            "0xf74826f11048fa8ecf33e91132bf280f6582ed97548a84e426b56e98526b9316",
            "0x0000000000000000000000008f692d7abc6cdf567571276f76112ec9a01de309"
          ],
          "data": "0x0000000000000000000000000000000000000000000000000000000000000001",
          "blockHash": "0x82a10e52020155c7228457fdada9bf190787088d20a3e07758ac20d04983fcb8",
          "blockNumber": "0xecedc6",
          "transactionHash": "0x5d75cc79f0d6db4727529e099537522ac7b48c54cdd492f5faacbabca77a5bc7",
          "transactionIndex": "0x44",
          "logIndex": "0x21",
          "removed": false
        }
      ],
      "status": "0x1",
      "logsBloom": "0x00000000000000000000000000000000000000000000000000000000000000000000000000000000000000000000000000000000000000000020000000220000000000000000000000000000000000000000000000000000000000000000000000000000000000000000000000000000000000100000000000000000000000000000000000000000000000000000000000000000000000000001000000800000000000000000000000000000000000000000000000000000000000000000000000000000010000000000008000000000000000000000000000000000000000000000000000000000000000000000000000000000000800000000000000000000",
      "type": "0x2",
      "effectiveGasPrice": "0x9b76731cb"
    },
    {
      "transactionHash": "0x97bb0b27492880803d6859696732ab26a65f81e96ac9c14e4c4d6ba5e7211a96",
      "transactionIndex": "0x45",
      "blockHash": "0x82a10e52020155c7228457fdada9bf190787088d20a3e07758ac20d04983fcb8",
      "blockNumber": "0xecedc6",
      "from": "0x813288526ccbfade7aba8836a4ca2462eb886bb7",
      "to": "0x11733abf0cdb43298f7e949c930188451a9a9ef2",
      "cumulativeGasUsed": "0x7cf4ca",
      "gasUsed": "0xbaec",
      "contractAddress": null,
      "logs": [
        {
          "address": "0x11733abf0cdb43298f7e949c930188451a9a9ef2",
          "topics": [
            "0xf74826f11048fa8ecf33e91132bf280f6582ed97548a84e426b56e98526b9316",
            "0x0000000000000000000000008f692d7abc6cdf567571276f76112ec9a01de309"
          ],
          "data": "0x0000000000000000000000000000000000000000000000000000000000000001",
          "blockHash": "0x82a10e52020155c7228457fdada9bf190787088d20a3e07758ac20d04983fcb8",
          "blockNumber": "0xecedc6",
          "transactionHash": "0x97bb0b27492880803d6859696732ab26a65f81e96ac9c14e4c4d6ba5e7211a96",
          "transactionIndex": "0x45",
          "logIndex": "0x22",
          "removed": false
        }
      ],
      "status": "0x1",
      "logsBloom": "0x00000000000000000000000000000000000000000000000000000000000000000000000000000000000000000000000000000000000000000000000000020000000000000000000000000000000000000000000000000000000000000000000000000000000000000000000000000000000000100000000000000000000000000000000000200000000000000000000000000000000000000001000000800000000000000000000000000000000000000100000000000000000000000000000000000000010000000000008000000000000000000000000000000000000000000080000000000000000000000000000000000000000000000000000000000000",
      "type": "0x2",
      "effectiveGasPrice": "0x9b76731cb"
    },
    {
      "transactionHash": "0x6bb349cb0c537e1d9b03228116d5d679b1c8b9e8fa9e19721d3af4c5437f6e36",
      "transactionIndex": "0x46",
      "blockHash": "0x82a10e52020155c7228457fdada9bf190787088d20a3e07758ac20d04983fcb8",
      "blockNumber": "0xecedc6",
      "from": "0x813288526ccbfade7aba8836a4ca2462eb886bb7",
      "to": "0xb33874810e5395eb49d8bd7e912631db115d5a03",
      "cumulativeGasUsed": "0x7dafb6",
      "gasUsed": "0xbaec",
      "contractAddress": null,
      "logs": [
        {
          "address": "0xb33874810e5395eb49d8bd7e912631db115d5a03",
          "topics": [
            "0xf74826f11048fa8ecf33e91132bf280f6582ed97548a84e426b56e98526b9316",
            "0x0000000000000000000000008f692d7abc6cdf567571276f76112ec9a01de309"
          ],
          "data": "0x0000000000000000000000000000000000000000000000000000000000000001",
          "blockHash": "0x82a10e52020155c7228457fdada9bf190787088d20a3e07758ac20d04983fcb8",
          "blockNumber": "0xecedc6",
          "transactionHash": "0x6bb349cb0c537e1d9b03228116d5d679b1c8b9e8fa9e19721d3af4c5437f6e36",
          "transactionIndex": "0x46",
          "logIndex": "0x23",
          "removed": false
        }
      ],
      "status": "0x1",
      "logsBloom": "0x00040000000000000000000000000000000000000000000000000000000000000000000000000000000000000000000000000000000000000000000000020000000000000000000000000001000000000000040000000000000000000000000000000000000000000000000000000000000000100000000000000000000000000000000000000000000000000000000000000000000000000001000000800000000000000000000000000000000000000000000000000000000000000000000000000000010000000000008000000000000000000000000000000000000000000000000000000000000000000000000000000000000000000000000000000000",
      "type": "0x2",
      "effectiveGasPrice": "0x9b76731cb"
    },
    {
      "transactionHash": "0xe5a5b0cc61112585d53d5a3df0a022df9b48854160e35445875b929effe57266",
      "transactionIndex": "0x47",
      "blockHash": "0x82a10e52020155c7228457fdada9bf190787088d20a3e07758ac20d04983fcb8",
      "blockNumber": "0xecedc6",
      "from": "0x813288526ccbfade7aba8836a4ca2462eb886bb7",
      "to": "0x86904eb2b3c743400d03f929f2246efa80b91215",
      "cumulativeGasUsed": "0x7ec031",
      "gasUsed": "0x1107b",
      "contractAddress": null,
      "logs": [
        {
          "address": "0x86904eb2b3c743400d03f929f2246efa80b91215",
          "topics": [
            "0xc8242dc5446855370b781abbfc5d882af1d1a3cc29143216aba3558feb0ce925"
          ],
          "data": "0x000000000000000000000000000000000000000000000000000000000000001e0000000000000000000000007d8911eb1c72f0ba29302be30301b75cec81f622",
          "blockHash": "0x82a10e52020155c7228457fdada9bf190787088d20a3e07758ac20d04983fcb8",
          "blockNumber": "0xecedc6",
          "transactionHash": "0xe5a5b0cc61112585d53d5a3df0a022df9b48854160e35445875b929effe57266",
          "transactionIndex": "0x47",
          "logIndex": "0x24",
          "removed": false
        }
      ],
      "status": "0x1",
      "logsBloom": "0x00002000000000000000000000000000000000000000000000000000000000000000000000000000000000000000000000000000000000000000000000000000000000000000000000000000000000000000080000000000000000000000000000000000000004000000000000000000000000000000000000000000000000000000000000000000000000000000000000000000000000000000000000000000000000000000000000000000000000000000000000000000000000000000000000000000000000000000000000000000004000000000000000004000000000000000000000000000000020000000000000000000000000000000000000000000",
      "type": "0x2",
      "effectiveGasPrice": "0x9b76731cb"
    },
    {
      "transactionHash": "0xb565bde52a116019f20675a89363140e9a8641f665b27ce5488b2eef2265c91d",
      "transactionIndex": "0x48",
      "blockHash": "0x82a10e52020155c7228457fdada9bf190787088d20a3e07758ac20d04983fcb8",
      "blockNumber": "0xecedc6",
      "from": "0x813288526ccbfade7aba8836a4ca2462eb886bb7",
      "to": "0xbf365e79aa44a2164da135100c57fdb6635ae870",
      "cumulativeGasUsed": "0x7fd0ac",
      "gasUsed": "0x1107b",
      "contractAddress": null,
      "logs": [
        {
          "address": "0xbf365e79aa44a2164da135100c57fdb6635ae870",
          "topics": [
            "0xc8242dc5446855370b781abbfc5d882af1d1a3cc29143216aba3558feb0ce925"
          ],
          "data": "0x000000000000000000000000000000000000000000000000000000000000001e0000000000000000000000007d8911eb1c72f0ba29302be30301b75cec81f622",
          "blockHash": "0x82a10e52020155c7228457fdada9bf190787088d20a3e07758ac20d04983fcb8",
          "blockNumber": "0xecedc6",
          "transactionHash": "0xb565bde52a116019f20675a89363140e9a8641f665b27ce5488b2eef2265c91d",
          "transactionIndex": "0x48",
          "logIndex": "0x25",
          "removed": false
        }
      ],
      "status": "0x1",
      "logsBloom": "0x00000000000000000000000000000000000020000000000000000000000000000000000000000000000000000000000000000000200000000000000000000000000000000000000000000000000000000000000000000000000000000000000000000000000000000000000000000000000000000000000000000000000000000000000000000000000000000000010000000000000000000000000000000000000000000000000000000000000000000000000000000000000000000000000000000000000000000000000000000000004000000000000000004000000000000000000000000000000020000000000000000000000000000000000000000000",
      "type": "0x2",
      "effectiveGasPrice": "0x9b76731cb"
    },
    {
      "transactionHash": "0xb3aa41c50055960f86de42f3e622662937d1bd7a3baf500a22d7914802669cc4",
      "transactionIndex": "0x49",
      "blockHash": "0x82a10e52020155c7228457fdada9bf190787088d20a3e07758ac20d04983fcb8",
      "blockNumber": "0xecedc6",
      "from": "0x813288526ccbfade7aba8836a4ca2462eb886bb7",
      "to": "0xbd68cbe6c247e2c3a0e36b8f0e24964914f26ee8",
      "cumulativeGasUsed": "0x80e13d",
      "gasUsed": "0x11091",
      "contractAddress": null,
      "logs": [
        {
          "address": "0xbd68cbe6c247e2c3a0e36b8f0e24964914f26ee8",
          "topics": [
            "0xc8242dc5446855370b781abbfc5d882af1d1a3cc29143216aba3558feb0ce925"
          ],
          "data": "0x000000000000000000000000000000000000000000000000000000000000001e0000000000000000000000007d8911eb1c72f0ba29302be30301b75cec81f622",
          "blockHash": "0x82a10e52020155c7228457fdada9bf190787088d20a3e07758ac20d04983fcb8",
          "blockNumber": "0xecedc6",
          "transactionHash": "0xb3aa41c50055960f86de42f3e622662937d1bd7a3baf500a22d7914802669cc4",
          "transactionIndex": "0x49",
          "logIndex": "0x26",
          "removed": false
        }
      ],
      "status": "0x1",
      "logsBloom": "0x00000000000000000000000000000000000000000000000000000000000000000000000000000000000000000000000000000000000000000000000000000000000000000000000000000000000000000000000000000000000000000000000000000000000000000000000000000000000000000000000000000000000000000002000000000000000000000000000000000000000000000000000000000000000002000000000000000000000000000000000000000000000000000000000000000000000000000000000000000000004000000000000000004000000000000080000000000000000020000000000000000000000000000000000000000000",
      "type": "0x2",
      "effectiveGasPrice": "0x9b76731cb"
    },
    {
      "transactionHash": "0xe9ab32a23e3c61ec0fa96641fc0312dad1c167b7bbe9e669a382b98210bf7e6d",
      "transactionIndex": "0x4a",
      "blockHash": "0x82a10e52020155c7228457fdada9bf190787088d20a3e07758ac20d04983fcb8",
      "blockNumber": "0xecedc6",
      "from": "0x813288526ccbfade7aba8836a4ca2462eb886bb7",
      "to": "0xe4ddca21881bac219af7f217703db0475d2a9f02",
      "cumulativeGasUsed": "0x81f1ce",
      "gasUsed": "0x11091",
      "contractAddress": null,
      "logs": [
        {
          "address": "0xe4ddca21881bac219af7f217703db0475d2a9f02",
          "topics": [
            "0xc8242dc5446855370b781abbfc5d882af1d1a3cc29143216aba3558feb0ce925"
          ],
          "data": "0x000000000000000000000000000000000000000000000000000000000000001e0000000000000000000000007d8911eb1c72f0ba29302be30301b75cec81f622",
          "blockHash": "0x82a10e52020155c7228457fdada9bf190787088d20a3e07758ac20d04983fcb8",
          "blockNumber": "0xecedc6",
          "transactionHash": "0xe9ab32a23e3c61ec0fa96641fc0312dad1c167b7bbe9e669a382b98210bf7e6d",
          "transactionIndex": "0x4a",
          "logIndex": "0x27",
          "removed": false
        }
      ],
      "status": "0x1",
      "logsBloom": "0x00000000000000000000000000000000000000000000000000000000000000000000000000000000000000000000000000000000000000000020000000200000000000000000000000000000000000000000000000000000000000000000000000000000000000000000000000000000000000000000000000000000000000000000000000000000000000000000000000000000000000000000000000000000000000000000000000000000000000000000000000000000000000000000000000000000000000000000000000000000004000000000000000004000000000000000000000000000000020000000000000000000000800000000000000000000",
      "type": "0x2",
      "effectiveGasPrice": "0x9b76731cb"
    },
    {
      "transactionHash": "0x1499d8c99309e10d96b25084a2fd3e4d06a0a3fecb74f6bc733f7123d12cd19e",
      "transactionIndex": "0x1e",
      "blockHash": "0xcd5e820d2d89ef3cc2d5bfc5c333bacd19838dfdb03b6f5a1ba7289a0a99e945",
      "blockNumber": "0xecedc7",
      "from": "0x813288526ccbfade7aba8836a4ca2462eb886bb7",
      "to": "0x11733abf0cdb43298f7e949c930188451a9a9ef2",
      "cumulativeGasUsed": "0x12b1bb",
      "gasUsed": "0x11091",
      "contractAddress": null,
      "logs": [
        {
          "address": "0x11733abf0cdb43298f7e949c930188451a9a9ef2",
          "topics": [
            "0xc8242dc5446855370b781abbfc5d882af1d1a3cc29143216aba3558feb0ce925"
          ],
          "data": "0x000000000000000000000000000000000000000000000000000000000000001e0000000000000000000000007d8911eb1c72f0ba29302be30301b75cec81f622",
          "blockHash": "0xcd5e820d2d89ef3cc2d5bfc5c333bacd19838dfdb03b6f5a1ba7289a0a99e945",
          "blockNumber": "0xecedc7",
          "transactionHash": "0x1499d8c99309e10d96b25084a2fd3e4d06a0a3fecb74f6bc733f7123d12cd19e",
          "transactionIndex": "0x1e",
          "logIndex": "0x15",
          "removed": false
        }
      ],
      "status": "0x1",
      "logsBloom": "0x00000000000000000000000000000000000000000000000000000000000000000000000000000000000000000000000000000000000000000000000000000000000000000000000000000000000000000000000000000000000000000000000000000000000000000000000000000000000000000000000000000000000000000000000000200000000000000000000000000000000000000000000000000000000000000000000000000000000000000100000000000000000000000000000000000000000000000000000000000000004000000000000000004000000000000080000000000000000020000000000000000000000000000000000000000000",
      "type": "0x2",
      "effectiveGasPrice": "0x9b33067ab"
    },
    {
      "transactionHash": "0x13d923c5685fb0c49595312901dee440d434a9c3afbe14c445f7f7ad25dc6909",
      "transactionIndex": "0x1f",
      "blockHash": "0xcd5e820d2d89ef3cc2d5bfc5c333bacd19838dfdb03b6f5a1ba7289a0a99e945",
      "blockNumber": "0xecedc7",
      "from": "0x813288526ccbfade7aba8836a4ca2462eb886bb7",
      "to": "0xb33874810e5395eb49d8bd7e912631db115d5a03",
      "cumulativeGasUsed": "0x13c24c",
      "gasUsed": "0x11091",
      "contractAddress": null,
      "logs": [
        {
          "address": "0xb33874810e5395eb49d8bd7e912631db115d5a03",
          "topics": [
            "0xc8242dc5446855370b781abbfc5d882af1d1a3cc29143216aba3558feb0ce925"
          ],
          "data": "0x000000000000000000000000000000000000000000000000000000000000001e0000000000000000000000007d8911eb1c72f0ba29302be30301b75cec81f622",
          "blockHash": "0xcd5e820d2d89ef3cc2d5bfc5c333bacd19838dfdb03b6f5a1ba7289a0a99e945",
          "blockNumber": "0xecedc7",
          "transactionHash": "0x13d923c5685fb0c49595312901dee440d434a9c3afbe14c445f7f7ad25dc6909",
          "transactionIndex": "0x1f",
          "logIndex": "0x16",
          "removed": false
        }
      ],
      "status": "0x1",
      "logsBloom": "0x00040000000000000000000000000000000000000000000000000000000000000000000000000000000000000000000000000000000000000000000000000000000000000000000000000001000000000000040000000000000000000000000000000000000000000000000000000000000000000000000000000000000000000000000000000000000000000000000000000000000000000000000000000000000000000000000000000000000000000000000000000000000000000000000000000000000000000000000000000000004000000000000000004000000000000000000000000000000020000000000000000000000000000000000000000000",
      "type": "0x2",
      "effectiveGasPrice": "0x9b33067ab"
    }
  ],
  "libraries": [],
  "pending": [],
  "path": "/Users/kiasaki/repos/thorswap-contract-v2/broadcast/Deploy.s.sol/1/run-latest.json",
  "returns": {},
  "timestamp": 1663078798,
  "commit": "135d871"
}